{
  "contractName": "Account",
  "abi": [
    {
      "constant": true,
      "inputs": [
        {
          "name": "",
          "type": "address"
        }
      ],
      "name": "operators",
      "outputs": [
        {
          "name": "",
          "type": "bool"
        }
      ],
      "payable": false,
      "stateMutability": "view",
      "type": "function"
    },
    {
      "constant": true,
      "inputs": [],
      "name": "owner",
      "outputs": [
        {
          "name": "",
          "type": "address"
        }
      ],
      "payable": false,
      "stateMutability": "view",
      "type": "function"
    },
    {
      "constant": true,
      "inputs": [
        {
          "name": "",
          "type": "uint256"
        }
      ],
      "name": "derivatives",
      "outputs": [
        {
          "name": "",
          "type": "address"
        }
      ],
      "payable": false,
      "stateMutability": "view",
      "type": "function"
    },
    {
      "inputs": [],
      "payable": false,
      "stateMutability": "nonpayable",
      "type": "constructor"
    },
    {
      "payable": true,
      "stateMutability": "payable",
      "type": "fallback"
    },
    {
      "constant": false,
      "inputs": [],
      "name": "destroy",
      "outputs": [],
      "payable": false,
      "stateMutability": "nonpayable",
      "type": "function"
    },
    {
      "constant": false,
      "inputs": [
        {
          "name": "newOwner",
          "type": "address"
        }
      ],
      "name": "transferOwnership",
      "outputs": [],
      "payable": false,
      "stateMutability": "nonpayable",
      "type": "function"
    },
    {
      "constant": false,
      "inputs": [
        {
          "name": "operatorAddress",
          "type": "address"
        }
      ],
      "name": "addOperator",
      "outputs": [],
      "payable": false,
      "stateMutability": "nonpayable",
      "type": "function"
    },
    {
      "constant": false,
      "inputs": [
        {
          "name": "operatorAddress",
          "type": "address"
        }
      ],
      "name": "removeOperator",
      "outputs": [],
      "payable": false,
      "stateMutability": "nonpayable",
      "type": "function"
    },
    {
      "constant": false,
      "inputs": [
        {
          "name": "contractAddress",
          "type": "address"
        }
      ],
      "name": "addDerivative",
      "outputs": [],
      "payable": false,
      "stateMutability": "nonpayable",
      "type": "function"
    },
    {
      "constant": false,
      "inputs": [
        {
          "name": "destination",
          "type": "address"
        },
        {
          "name": "amount",
          "type": "uint256"
        }
      ],
      "name": "transfer",
      "outputs": [],
      "payable": false,
      "stateMutability": "nonpayable",
      "type": "function"
    },
    {
      "constant": false,
      "inputs": [
        {
          "name": "derivative",
          "type": "address"
        },
        {
          "name": "recipientAccount",
          "type": "address"
        },
        {
          "name": "notional",
          "type": "int32"
        }
      ],
      "name": "transferNotional",
      "outputs": [],
      "payable": false,
      "stateMutability": "nonpayable",
      "type": "function"
    },
    {
      "constant": true,
      "inputs": [
        {
          "name": "derivative",
          "type": "address"
        }
      ],
      "name": "getRequiredFee",
      "outputs": [
        {
          "name": "",
          "type": "uint64"
        }
      ],
      "payable": false,
      "stateMutability": "view",
      "type": "function"
    },
    {
      "constant": false,
      "inputs": [
        {
          "name": "contractAddress",
          "type": "address"
        }
      ],
      "name": "registerDerivativeAndPayFee",
      "outputs": [],
      "payable": false,
      "stateMutability": "nonpayable",
      "type": "function"
    },
    {
      "constant": true,
      "inputs": [],
      "name": "getDerivatives",
      "outputs": [
        {
          "name": "",
          "type": "address[]"
        }
      ],
      "payable": false,
      "stateMutability": "view",
      "type": "function"
    },
    {
      "constant": true,
      "inputs": [
        {
          "name": "derivative",
          "type": "address"
        }
      ],
      "name": "getCollateralRequirement",
      "outputs": [
        {
          "name": "",
          "type": "int128"
        }
      ],
      "payable": false,
      "stateMutability": "view",
      "type": "function"
    },
    {
      "constant": true,
      "inputs": [],
      "name": "getTotalAllocated",
      "outputs": [
        {
          "name": "",
          "type": "int128"
        }
      ],
      "payable": false,
      "stateMutability": "view",
      "type": "function"
    },
    {
      "constant": true,
      "inputs": [],
      "name": "getTotalAvailable",
      "outputs": [
        {
          "name": "",
          "type": "uint256"
        }
      ],
      "payable": false,
      "stateMutability": "view",
      "type": "function"
    },
    {
      "constant": true,
      "inputs": [],
      "name": "isInsufficientBalance",
      "outputs": [
        {
          "name": "",
          "type": "bool"
        }
      ],
      "payable": false,
      "stateMutability": "view",
      "type": "function"
    },
    {
      "constant": false,
      "inputs": [],
      "name": "closeOut",
      "outputs": [],
      "payable": false,
      "stateMutability": "nonpayable",
      "type": "function"
    },
    {
      "constant": false,
      "inputs": [
        {
          "name": "destination",
          "type": "address"
        },
        {
          "name": "amountToSend",
          "type": "int128"
        }
      ],
      "name": "settle",
      "outputs": [],
      "payable": false,
      "stateMutability": "nonpayable",
      "type": "function"
    },
    {
      "constant": false,
      "inputs": [
        {
          "name": "derivative",
          "type": "address"
        },
        {
          "name": "notional",
          "type": "int32"
        },
        {
          "name": "xp",
          "type": "int64"
        }
      ],
      "name": "goLong",
      "outputs": [],
      "payable": false,
      "stateMutability": "nonpayable",
      "type": "function"
    },
    {
      "constant": false,
      "inputs": [
        {
          "name": "derivative",
          "type": "address"
        },
        {
          "name": "notional",
          "type": "int32"
        },
        {
          "name": "xp",
          "type": "int64"
        }
      ],
      "name": "goShort",
      "outputs": [],
      "payable": false,
      "stateMutability": "nonpayable",
      "type": "function"
    },
    {
      "constant": true,
      "inputs": [],
      "name": "isInUse",
      "outputs": [
        {
          "name": "",
          "type": "bool"
        }
      ],
      "payable": false,
      "stateMutability": "view",
      "type": "function"
    }
  ],
  "bytecode": "0x608060405234801561001057600080fd5b50336000806101000a81548173ffffffffffffffffffffffffffffffffffffffff021916908373ffffffffffffffffffffffffffffffffffffffff160217905550612e6d806100606000396000f3fe608060405260043610610128576000357c0100000000000000000000000000000000000000000000000000000000900463ffffffff16806313e7c9d81461012a5780631f46b84e14610193578063327731fb146101f15780634ced66ff1461025d5780634dfe06b6146102ae578063543fc62a146103195780635d4e22da1461033057806369674ec91461039b57806382299a5c146103c657806383197ef0146103f7578063833320ea1461040e5780638da5cb5b1461043d5780639870d7fe14610494578063a9059cbb146104e5578063ac8a584a14610540578063c002475a14610591578063c0046e39146105e2578063c9ba8e201461065d578063d0d5de611461068c578063efca94bb14610705578063f2fde38b14610770578063fdefe0c9146107c1575b005b34801561013657600080fd5b506101796004803603602081101561014d57600080fd5b81019080803573ffffffffffffffffffffffffffffffffffffffff16906020019092919050505061083f565b604051808215151515815260200191505060405180910390f35b34801561019f57600080fd5b506101ef600480360360408110156101b657600080fd5b81019080803573ffffffffffffffffffffffffffffffffffffffff1690602001909291908035600f0b906020019092919050505061085f565b005b3480156101fd57600080fd5b50610206610b80565b6040518080602001828103825283818151815260200191508051906020019060200280838360005b8381101561024957808201518184015260208101905061022e565b505050509050019250505060405180910390f35b34801561026957600080fd5b506102ac6004803603602081101561028057600080fd5b81019080803573ffffffffffffffffffffffffffffffffffffffff169060200190929190505050610c0e565b005b3480156102ba57600080fd5b506102fd600480360360208110156102d157600080fd5b81019080803573ffffffffffffffffffffffffffffffffffffffff169060200190929190505050610e8c565b6040518082600f0b600f0b815260200191505060405180910390f35b34801561032557600080fd5b5061032e6113d7565b005b34801561033c57600080fd5b506103996004803603606081101561035357600080fd5b81019080803573ffffffffffffffffffffffffffffffffffffffff169060200190929190803560030b9060200190929190803560070b90602001909291905050506119c7565b005b3480156103a757600080fd5b506103b0611b85565b6040518082815260200191505060405180910390f35b3480156103d257600080fd5b506103db611bca565b6040518082600f0b600f0b815260200191505060405180910390f35b34801561040357600080fd5b5061040c611c87565b005b34801561041a57600080fd5b50610423611e02565b604051808215151515815260200191505060405180910390f35b34801561044957600080fd5b50610452611e46565b604051808273ffffffffffffffffffffffffffffffffffffffff1673ffffffffffffffffffffffffffffffffffffffff16815260200191505060405180910390f35b3480156104a057600080fd5b506104e3600480360360208110156104b757600080fd5b81019080803573ffffffffffffffffffffffffffffffffffffffff169060200190929190505050611e6b565b005b3480156104f157600080fd5b5061053e6004803603604081101561050857600080fd5b81019080803573ffffffffffffffffffffffffffffffffffffffff16906020019092919080359060200190929190505050611f89565b005b34801561054c57600080fd5b5061058f6004803603602081101561056357600080fd5b81019080803573ffffffffffffffffffffffffffffffffffffffff16906020019092919050505061213d565b005b34801561059d57600080fd5b506105e0600480360360208110156105b457600080fd5b81019080803573ffffffffffffffffffffffffffffffffffffffff16906020019092919050505061225c565b005b3480156105ee57600080fd5b5061061b6004803603602081101561060557600080fd5b81019080803590602001909291905050506123ed565b604051808273ffffffffffffffffffffffffffffffffffffffff1673ffffffffffffffffffffffffffffffffffffffff16815260200191505060405180910390f35b34801561066957600080fd5b5061067261242b565b604051808215151515815260200191505060405180910390f35b34801561069857600080fd5b506106db600480360360208110156106af57600080fd5b81019080803573ffffffffffffffffffffffffffffffffffffffff1690602001909291905050506125c1565b604051808267ffffffffffffffff1667ffffffffffffffff16815260200191505060405180910390f35b34801561071157600080fd5b5061076e6004803603606081101561072857600080fd5b81019080803573ffffffffffffffffffffffffffffffffffffffff169060200190929190803560030b9060200190929190803560070b9060200190929190505050612890565b005b34801561077c57600080fd5b506107bf6004803603602081101561079357600080fd5b81019080803573ffffffffffffffffffffffffffffffffffffffff169060200190929190505050612a4e565b005b3480156107cd57600080fd5b5061083d600480360360608110156107e457600080fd5b81019080803573ffffffffffffffffffffffffffffffffffffffff169060200190929190803573ffffffffffffffffffffffffffffffffffffffff169060200190929190803560030b9060200190929190505050612bfa565b005b60016020528060005260406000206000915054906101000a900460ff1681565b61086833612d8a565b15156108dc576040517f08c379a000000000000000000000000000000000000000000000000000000000815260040180806020018281038252600f8152602001807f4e6f7420617574686f72697a65642e000000000000000000000000000000000081525060200191505060405180910390fd5b60003390506000808273ffffffffffffffffffffffffffffffffffffffff166316c19739306040518263ffffffff167c0100000000000000000000000000000000000000000000000000000000028152600401808273ffffffffffffffffffffffffffffffffffffffff1673ffffffffffffffffffffffffffffffffffffffff168152602001915050604080518083038186803b15801561097c57600080fd5b505afa158015610990573d6000803e3d6000fd5b505050506040513d60408110156109a657600080fd5b810190808051906020019092919080519060200190929190505050915091508273ffffffffffffffffffffffffffffffffffffffff16632f13b60c6040518163ffffffff167c010000000000000000000000000000000000000000000000000000000002815260040160206040518083038186803b158015610a2757600080fd5b505afa158015610a3b573d6000803e3d6000fd5b505050506040513d6020811015610a5157600080fd5b81019080805190602001909291905050508015610a71575060008260030b145b8015610a805750600081600f0b125b8015610a95575080600003600f0b84600f0b13155b1515610b2f576040517f08c379a00000000000000000000000000000000000000000000000000000000081526004018080602001828103825260218152602001807f4e6f7420656c696769626c6520666f722066696e616c20736574746c656d656e81526020017f740000000000000000000000000000000000000000000000000000000000000081525060400191505060405180910390fd5b8473ffffffffffffffffffffffffffffffffffffffff166108fc85600f0b9081150290604051600060405180830381858888f19350505050158015610b78573d6000803e3d6000fd5b505050505050565b60606002805480602002602001604051908101604052809291908181526020018280548015610c0457602002820191906000526020600020905b8160009054906101000a900473ffffffffffffffffffffffffffffffffffffffff1673ffffffffffffffffffffffffffffffffffffffff1681526020019060010190808311610bba575b5050505050905090565b6000809054906101000a900473ffffffffffffffffffffffffffffffffffffffff1673ffffffffffffffffffffffffffffffffffffffff163373ffffffffffffffffffffffffffffffffffffffff161480610cb25750600160003373ffffffffffffffffffffffffffffffffffffffff1673ffffffffffffffffffffffffffffffffffffffff16815260200190815260200160002060009054906101000a900460ff165b1515610d26576040517f08c379a000000000000000000000000000000000000000000000000000000000815260040180806020018281038252600f8152602001807f4e6f7420617574686f72697a65642e000000000000000000000000000000000081525060200191505060405180910390fd5b610d2f8161225c565b6000610d3a826125c1565b905060008167ffffffffffffffff161415610d555750610e89565b610d5d611b85565b8167ffffffffffffffff1611151515610e04576040517f08c379a00000000000000000000000000000000000000000000000000000000081526004018080602001828103825260218152602001807f496e73756666696369656e7420756e616c6c6f63617465642062616c616e636581526020017f2e0000000000000000000000000000000000000000000000000000000000000081525060400191505060405180910390fd5b60008290508073ffffffffffffffffffffffffffffffffffffffff166329610252836040518263ffffffff167c01000000000000000000000000000000000000000000000000000000000281526004016000604051808303818588803b158015610e6d57600080fd5b505af1158015610e81573d6000803e3d6000fd5b505050505050505b50565b6000808290506000808273ffffffffffffffffffffffffffffffffffffffff166316c19739306040518263ffffffff167c0100000000000000000000000000000000000000000000000000000000028152600401808273ffffffffffffffffffffffffffffffffffffffff1673ffffffffffffffffffffffffffffffffffffffff168152602001915050604080518083038186803b158015610f2d57600080fd5b505afa158015610f41573d6000803e3d6000fd5b505050506040513d6040811015610f5757600080fd5b810190808051906020019092919080519060200190929190505050915091508273ffffffffffffffffffffffffffffffffffffffff16632f13b60c6040518163ffffffff167c010000000000000000000000000000000000000000000000000000000002815260040160206040518083038186803b158015610fd857600080fd5b505afa158015610fec573d6000803e3d6000fd5b505050506040513d602081101561100257600080fd5b81019080805190602001909291905050501561110c578273ffffffffffffffffffffffffffffffffffffffff16639c1ae08f83836000806000806040518763ffffffff167c0100000000000000000000000000000000000000000000000000000000028152600401808760030b60030b815260200186600f0b600f0b81526020018560030b81526020018460070b81526020018360030b81526020018260070b8152602001965050505050505060206040518083038186803b1580156110c757600080fd5b505afa1580156110db573d6000803e3d6000fd5b505050506040513d60208110156110f157600080fd5b810190808051906020019092919050505093505050506113d2565b6000808473ffffffffffffffffffffffffffffffffffffffff1663c8b342ab306040518263ffffffff167c0100000000000000000000000000000000000000000000000000000000028152600401808273ffffffffffffffffffffffffffffffffffffffff1673ffffffffffffffffffffffffffffffffffffffff168152602001915050604080518083038186803b1580156111a757600080fd5b505afa1580156111bb573d6000803e3d6000fd5b505050506040513d60408110156111d157600080fd5b810190808051906020019092919080519060200190929190505050915091506000808673ffffffffffffffffffffffffffffffffffffffff1663de129f4e306040518263ffffffff167c0100000000000000000000000000000000000000000000000000000000028152600401808273ffffffffffffffffffffffffffffffffffffffff1673ffffffffffffffffffffffffffffffffffffffff168152602001915050604080518083038186803b15801561128b57600080fd5b505afa15801561129f573d6000803e3d6000fd5b505050506040513d60408110156112b557600080fd5b810190808051906020019092919080519060200190929190505050915091508673ffffffffffffffffffffffffffffffffffffffff16639c1ae08f8787878787876040518763ffffffff167c0100000000000000000000000000000000000000000000000000000000028152600401808760030b60030b815260200186600f0b600f0b81526020018560030b60030b81526020018460070b60070b81526020018360030b60030b81526020018260070b60070b8152602001965050505050505060206040518083038186803b15801561138d57600080fd5b505afa1580156113a1573d6000803e3d6000fd5b505050506040513d60208110156113b757600080fd5b81019080805190602001909291905050509750505050505050505b919050565b6113e033612d8a565b1515611454576040517f08c379a000000000000000000000000000000000000000000000000000000000815260040180806020018281038252600f8152602001807f4e6f7420617574686f72697a65642e000000000000000000000000000000000081525060200191505060405180910390fd5b600033905060008173ffffffffffffffffffffffffffffffffffffffff166316c19739306040518263ffffffff167c0100000000000000000000000000000000000000000000000000000000028152600401808273ffffffffffffffffffffffffffffffffffffffff1673ffffffffffffffffffffffffffffffffffffffff168152602001915050604080518083038186803b1580156114f357600080fd5b505afa158015611507573d6000803e3d6000fd5b505050506040513d604081101561151d57600080fd5b8101908080519060200190929190805190602001909291905050505090508173ffffffffffffffffffffffffffffffffffffffff16632f13b60c6040518163ffffffff167c010000000000000000000000000000000000000000000000000000000002815260040160206040518083038186803b15801561159d57600080fd5b505afa1580156115b1573d6000803e3d6000fd5b505050506040513d60208110156115c757600080fd5b81019080805190602001909291905050501580156116b557508173ffffffffffffffffffffffffffffffffffffffff166360274213306040518263ffffffff167c0100000000000000000000000000000000000000000000000000000000028152600401808273ffffffffffffffffffffffffffffffffffffffff1673ffffffffffffffffffffffffffffffffffffffff16815260200191505060206040518083038186803b15801561167957600080fd5b505afa15801561168d573d6000803e3d6000fd5b505050506040513d60208110156116a357600080fd5b81019080805190602001909291905050505b80156116cc575060006116c733610e8c565b600f0b135b1515611740576040517f08c379a000000000000000000000000000000000000000000000000000000000815260040180806020018281038252601b8152602001807f4e6f7420656c696769626c6520666f7220636c6f7365206f75742e000000000081525060200191505060405180910390fd5b60008160030b1315611888578173ffffffffffffffffffffffffffffffffffffffff1663701decff828473ffffffffffffffffffffffffffffffffffffffff1663892f3de96040518163ffffffff167c010000000000000000000000000000000000000000000000000000000002815260040160206040518083038186803b1580156117cb57600080fd5b505afa1580156117df573d6000803e3d6000fd5b505050506040513d60208110156117f557600080fd5b81019080805190602001909291905050506040518363ffffffff167c0100000000000000000000000000000000000000000000000000000000028152600401808360030b60030b81526020018260070b60070b815260200192505050600060405180830381600087803b15801561186b57600080fd5b505af115801561187f573d6000803e3d6000fd5b505050506119c3565b8173ffffffffffffffffffffffffffffffffffffffff1663aa0a958f826000038473ffffffffffffffffffffffffffffffffffffffff1663d1770fcc6040518163ffffffff167c010000000000000000000000000000000000000000000000000000000002815260040160206040518083038186803b15801561190a57600080fd5b505afa15801561191e573d6000803e3d6000fd5b505050506040513d602081101561193457600080fd5b81019080805190602001909291905050506040518363ffffffff167c0100000000000000000000000000000000000000000000000000000000028152600401808360030b60030b81526020018260070b60070b815260200192505050600060405180830381600087803b1580156119aa57600080fd5b505af11580156119be573d6000803e3d6000fd5b505050505b5050565b6000809054906101000a900473ffffffffffffffffffffffffffffffffffffffff1673ffffffffffffffffffffffffffffffffffffffff163373ffffffffffffffffffffffffffffffffffffffff161480611a6b5750600160003373ffffffffffffffffffffffffffffffffffffffff1673ffffffffffffffffffffffffffffffffffffffff16815260200190815260200160002060009054906101000a900460ff165b1515611adf576040517f08c379a000000000000000000000000000000000000000000000000000000000815260040180806020018281038252600f8152602001807f4e6f7420617574686f72697a65642e000000000000000000000000000000000081525060200191505060405180910390fd5b60008390508073ffffffffffffffffffffffffffffffffffffffff1663701decff84846040518363ffffffff167c0100000000000000000000000000000000000000000000000000000000028152600401808360030b60030b81526020018260070b60070b815260200192505050600060405180830381600087803b158015611b6757600080fd5b505af1158015611b7b573d6000803e3d6000fd5b5050505050505050565b6000803073ffffffffffffffffffffffffffffffffffffffff163190506000611bac611bca565b600f0b9050808211611bbf576000611bc3565b8082035b9250505090565b6000806000905060008090505b600280549050811015611c7f57611c26600282815481101515611bf657fe5b9060005260206000200160009054906101000a900473ffffffffffffffffffffffffffffffffffffffff16612e2e565b15611c7257611c6d600282815481101515611c3d57fe5b9060005260206000200160009054906101000a900473ffffffffffffffffffffffffffffffffffffffff16610e8c565b820191505b8080600101915050611bd7565b508091505090565b6000809054906101000a900473ffffffffffffffffffffffffffffffffffffffff1673ffffffffffffffffffffffffffffffffffffffff163373ffffffffffffffffffffffffffffffffffffffff16141515611d4b576040517f08c379a000000000000000000000000000000000000000000000000000000000815260040180806020018281038252600f8152602001807f4e6f7420617574686f72697a65642e000000000000000000000000000000000081525060200191505060405180910390fd5b611d5361242b565b151515611dc8576040517f08c379a00000000000000000000000000000000000000000000000000000000081526004018080602001828103825260158152602001807f4163636f756e74207374696c6c20696e207573652e000000000000000000000081525060200191505060405180910390fd5b6000809054906101000a900473ffffffffffffffffffffffffffffffffffffffff1673ffffffffffffffffffffffffffffffffffffffff16ff5b6000803073ffffffffffffffffffffffffffffffffffffffff163190506000611e29611bca565b600f0b9050808210611e3c576000611e3f565b60015b9250505090565b6000809054906101000a900473ffffffffffffffffffffffffffffffffffffffff1681565b6000809054906101000a900473ffffffffffffffffffffffffffffffffffffffff1673ffffffffffffffffffffffffffffffffffffffff163373ffffffffffffffffffffffffffffffffffffffff16141515611f2f576040517f08c379a000000000000000000000000000000000000000000000000000000000815260040180806020018281038252600f8152602001807f4e6f7420617574686f72697a65642e000000000000000000000000000000000081525060200191505060405180910390fd5b60018060008373ffffffffffffffffffffffffffffffffffffffff1673ffffffffffffffffffffffffffffffffffffffff16815260200190815260200160002060006101000a81548160ff02191690831515021790555050565b6000809054906101000a900473ffffffffffffffffffffffffffffffffffffffff1673ffffffffffffffffffffffffffffffffffffffff163373ffffffffffffffffffffffffffffffffffffffff1614151561204d576040517f08c379a000000000000000000000000000000000000000000000000000000000815260040180806020018281038252600f8152602001807f4e6f7420617574686f72697a65642e000000000000000000000000000000000081525060200191505060405180910390fd5b612055611b85565b81111515156120f2576040517f08c379a00000000000000000000000000000000000000000000000000000000081526004018080602001828103825260218152602001807f496e73756666696369656e7420756e616c6c6f63617465642062616c616e636581526020017f2e0000000000000000000000000000000000000000000000000000000000000081525060400191505060405180910390fd5b8173ffffffffffffffffffffffffffffffffffffffff166108fc829081150290604051600060405180830381858888f19350505050158015612138573d6000803e3d6000fd5b505050565b6000809054906101000a900473ffffffffffffffffffffffffffffffffffffffff1673ffffffffffffffffffffffffffffffffffffffff163373ffffffffffffffffffffffffffffffffffffffff16141515612201576040517f08c379a000000000000000000000000000000000000000000000000000000000815260040180806020018281038252600f8152602001807f4e6f7420617574686f72697a65642e000000000000000000000000000000000081525060200191505060405180910390fd5b6000600160008373ffffffffffffffffffffffffffffffffffffffff1673ffffffffffffffffffffffffffffffffffffffff16815260200190815260200160002060006101000a81548160ff02191690831515021790555050565b6000809054906101000a900473ffffffffffffffffffffffffffffffffffffffff1673ffffffffffffffffffffffffffffffffffffffff163373ffffffffffffffffffffffffffffffffffffffff1614806123005750600160003373ffffffffffffffffffffffffffffffffffffffff1673ffffffffffffffffffffffffffffffffffffffff16815260200190815260200160002060009054906101000a900460ff165b1515612374576040517f08c379a000000000000000000000000000000000000000000000000000000000815260040180806020018281038252600f8152602001807f4e6f7420617574686f72697a65642e000000000000000000000000000000000081525060200191505060405180910390fd5b61237d81612d8a565b15156123ea5760028190806001815401808255809150509060018203906000526020600020016000909192909190916101000a81548173ffffffffffffffffffffffffffffffffffffffff021916908373ffffffffffffffffffffffffffffffffffffffff160217905550505b50565b6002818154811015156123fc57fe5b906000526020600020016000915054906101000a900473ffffffffffffffffffffffffffffffffffffffff1681565b600080600090505b6002805490508110156125b85761248260028281548110151561245257fe5b9060005260206000200160009054906101000a900473ffffffffffffffffffffffffffffffffffffffff16612e2e565b156125ab57600060028281548110151561249857fe5b9060005260206000200160009054906101000a900473ffffffffffffffffffffffffffffffffffffffff1690508073ffffffffffffffffffffffffffffffffffffffff1663ca472fdd306040518263ffffffff167c0100000000000000000000000000000000000000000000000000000000028152600401808273ffffffffffffffffffffffffffffffffffffffff1673ffffffffffffffffffffffffffffffffffffffff16815260200191505060206040518083038186803b15801561255e57600080fd5b505afa158015612572573d6000803e3d6000fd5b505050506040513d602081101561258857600080fd5b8101908080519060200190929190505050156125a9576001925050506125be565b505b8080600101915050612433565b50600090505b90565b60008060009054906101000a900473ffffffffffffffffffffffffffffffffffffffff1673ffffffffffffffffffffffffffffffffffffffff163373ffffffffffffffffffffffffffffffffffffffff1614806126675750600160003373ffffffffffffffffffffffffffffffffffffffff1673ffffffffffffffffffffffffffffffffffffffff16815260200190815260200160002060009054906101000a900460ff165b15156126db576040517f08c379a000000000000000000000000000000000000000000000000000000000815260040180806020018281038252600f8152602001807f4e6f7420617574686f72697a65642e000000000000000000000000000000000081525060200191505060405180910390fd5b600082905060008173ffffffffffffffffffffffffffffffffffffffff1663ddca3f436040518163ffffffff167c010000000000000000000000000000000000000000000000000000000002815260040160206040518083038186803b15801561274457600080fd5b505afa158015612758573d6000803e3d6000fd5b505050506040513d602081101561276e57600080fd5b8101908080519060200190929190505050905060008273ffffffffffffffffffffffffffffffffffffffff1663faaebd21306040518263ffffffff167c0100000000000000000000000000000000000000000000000000000000028152600401808273ffffffffffffffffffffffffffffffffffffffff1673ffffffffffffffffffffffffffffffffffffffff16815260200191505060206040518083038186803b15801561281c57600080fd5b505afa158015612830573d6000803e3d6000fd5b505050506040513d602081101561284657600080fd5b810190808051906020019092919050505090508167ffffffffffffffff168167ffffffffffffffff16101515612882576000935050505061288b565b80820393505050505b919050565b6000809054906101000a900473ffffffffffffffffffffffffffffffffffffffff1673ffffffffffffffffffffffffffffffffffffffff163373ffffffffffffffffffffffffffffffffffffffff1614806129345750600160003373ffffffffffffffffffffffffffffffffffffffff1673ffffffffffffffffffffffffffffffffffffffff16815260200190815260200160002060009054906101000a900460ff165b15156129a8576040517f08c379a000000000000000000000000000000000000000000000000000000000815260040180806020018281038252600f8152602001807f4e6f7420617574686f72697a65642e000000000000000000000000000000000081525060200191505060405180910390fd5b60008390508073ffffffffffffffffffffffffffffffffffffffff1663aa0a958f84846040518363ffffffff167c0100000000000000000000000000000000000000000000000000000000028152600401808360030b60030b81526020018260070b60070b815260200192505050600060405180830381600087803b158015612a3057600080fd5b505af1158015612a44573d6000803e3d6000fd5b5050505050505050565b6000809054906101000a900473ffffffffffffffffffffffffffffffffffffffff1673ffffffffffffffffffffffffffffffffffffffff163373ffffffffffffffffffffffffffffffffffffffff16141515612b12576040517f08c379a000000000000000000000000000000000000000000000000000000000815260040180806020018281038252600f8152602001807f4e6f7420617574686f72697a65642e000000000000000000000000000000000081525060200191505060405180910390fd5b600073ffffffffffffffffffffffffffffffffffffffff168173ffffffffffffffffffffffffffffffffffffffff1614151515612bb7576040517f08c379a000000000000000000000000000000000000000000000000000000000815260040180806020018281038252600f8152602001807f496e76616c69642061646472657373000000000000000000000000000000000081525060200191505060405180910390fd5b806000806101000a81548173ffffffffffffffffffffffffffffffffffffffff021916908373ffffffffffffffffffffffffffffffffffffffff16021790555050565b6000809054906101000a900473ffffffffffffffffffffffffffffffffffffffff1673ffffffffffffffffffffffffffffffffffffffff163373ffffffffffffffffffffffffffffffffffffffff16141515612cbe576040517f08c379a000000000000000000000000000000000000000000000000000000000815260040180806020018281038252600f8152602001807f4e6f7420617574686f72697a65642e000000000000000000000000000000000081525060200191505060405180910390fd5b60008390508073ffffffffffffffffffffffffffffffffffffffff16637f01020b84846040518363ffffffff167c0100000000000000000000000000000000000000000000000000000000028152600401808373ffffffffffffffffffffffffffffffffffffffff1673ffffffffffffffffffffffffffffffffffffffff1681526020018260030b60030b815260200192505050600060405180830381600087803b158015612d6c57600080fd5b505af1158015612d80573d6000803e3d6000fd5b5050505050505050565b600080600090505b600280549050811015612e23578273ffffffffffffffffffffffffffffffffffffffff16600282815481101515612dc557fe5b9060005260206000200160009054906101000a900473ffffffffffffffffffffffffffffffffffffffff1673ffffffffffffffffffffffffffffffffffffffff161415612e16576001915050612e29565b8080600101915050612d92565b50600090505b919050565b600080823b90506000811191505091905056fea165627a7a72305820f6a964c807b07e927a79d11a8a01f961f8a23d608a3eb1a30abe1c0b6a5aa1110029",
  "source": "/**\n*  Copyright 2019 Steffen Lehmann\n* Deployment permitted\n**/\n\npragma solidity ^0.5.0;\n\n/**\n * @title DerivativeProxy\n * @dev interface to derivative contracts\n */\ninterface DerivativeProxy {\n    function fee() external view returns (uint64);                // Fee requirement\n    function fees(address account) external view returns (uint64);  // Paid fees\n    function price() external view returns (int64);\n    function getLowEstimate() external view returns (int64);\n    function getHighEstimate() external view returns (int64);\n    function isExpired() external view returns (bool);\n    function isInUse(address account) external view returns (bool);\n    function isInDefault(address account) external view returns (bool); \n    function getPosition(address account) external view returns (int32, int128); // notional, amount\n    function getBid(address account) external view returns (int32, int64);    // notional, price\n    function getAsk(address account) external view returns (int32, int64);    // notional, price\n    function getCollateralRequirement(int32 positionNotional, int128 positionValue, int32 bidNotional, int64 bidPrice, int32 askNotional, int64 askPrice) external view returns (int128);\n    function goLong(int32 notional, int64 xp) external;\n    function goShort(int32 notional, int64 xp) external;\n    function transferNotional(address recipient, int32 notional) external;    // Transfer notional value, i.e. pay fixed amount of the underlying\n    function payFee() payable external;\n}\n\n/**\n * @title Account\n * @dev The Account is owned by a counterparty in a derivatives contract.\n * It locks up funds required for settlement.\n */\ncontract Account {\n    address payable public owner;\n    mapping(address => bool) public operators;\n    address[] public derivatives;\n    \n    /**\n     * @dev Constructor \n     */\n    constructor() public {\n        owner = msg.sender;\n    }\n\n    modifier onlyOwner() {\n        require(msg.sender == owner, \"Not authorized.\");\n        _;\n    }\n\n    modifier onlyOwnerOrOperator() {\n        require(msg.sender == owner || operators[msg.sender], \"Not authorized.\");\n        _;\n    }\n\n    modifier onlyDerivative() {\n        require(isDerivativeRegistered(msg.sender), \"Not authorized.\");\n        _;\n    }\n\n    function destroy() external onlyOwner {\n        require(!isInUse(), \"Account still in use.\");\n        selfdestruct(owner);\n    }\n\n    function transferOwnership(address payable newOwner) external onlyOwner {\n        require(newOwner != address(0), \"Invalid address\");\n        owner = newOwner;\n    }\n\n    function addOperator(address operatorAddress) external onlyOwner {\n        operators[operatorAddress] = true;\n    }\n\n    function removeOperator(address operatorAddress) external onlyOwner {\n        operators[operatorAddress] = false;\n    }\n\n    function addDerivative(address contractAddress) public onlyOwnerOrOperator {\n        if (!isDerivativeRegistered(contractAddress))\n            derivatives.push(contractAddress);\n    }\n\n    function isDerivativeRegistered(address contractAddress) private view returns(bool) {\n        for (uint i = 0; i < derivatives.length; i++) {\n            if (derivatives[i] == contractAddress) {\n                return true;\n            }\n        }\n        return false;\n    }\n\n    function transfer(address payable destination, uint amount) external onlyOwner {\n        require(amount <= getTotalAvailable(), \"Insufficient unallocated balance.\");\n        destination.transfer(amount);\n    }\n\n    function transferNotional(address derivative, address recipientAccount, int32 notional) external onlyOwner {\n        DerivativeProxy proxy = DerivativeProxy(derivative);\n        proxy.transferNotional(recipientAccount, notional);\n    }\n\n    function getRequiredFee(address derivative) public view onlyOwnerOrOperator returns (uint64) {\n        DerivativeProxy proxy = DerivativeProxy(derivative);\n        uint64 fee = proxy.fee();\n        uint64 paidFee = proxy.fees(address(this));\n        if (paidFee >= fee)\n            return 0;\n        return fee - paidFee;\n    }\n\n    function registerDerivativeAndPayFee(address contractAddress) external onlyOwnerOrOperator {\n        addDerivative(contractAddress);\n        uint64 fee = getRequiredFee(contractAddress);\n        if (fee == 0)\n            return;\n        require(fee <= getTotalAvailable(), \"Insufficient unallocated balance.\");\n        DerivativeProxy proxy = DerivativeProxy(contractAddress);\n        proxy.payFee.value(fee)();\n    }\n\n    function getDerivatives() external view returns (address[] memory) {\n        return derivatives;\n    }\n\n    function getCollateralRequirement(address derivative) public view returns (int128) {\n        DerivativeProxy proxy = DerivativeProxy(derivative);\n        (int32 posNotional, int128 posAmount) = proxy.getPosition(address(this));\n        if (proxy.isExpired())\n            return proxy.getCollateralRequirement(posNotional, posAmount, 0, 0, 0, 0);\n        (int32 bidNotional, int64 bidPrice) = proxy.getBid(address(this));\n        (int32 askNotional, int64 askPrice) = proxy.getAsk(address(this));\n        return proxy.getCollateralRequirement(posNotional, posAmount, bidNotional, bidPrice, askNotional, askPrice);\n    }\n\n    function contractExists(address derivative) private view returns (bool) {\n        uint size;\n        assembly {\n            size := extcodesize(derivative)\n        }\n        return size > 0;\n    }\n\n    function getTotalAllocated() public view returns (int128) {\n        int128 a = 0;\n        for (uint i = 0; i < derivatives.length; i++) {\n            if (contractExists(derivatives[i])) {\n                a += getCollateralRequirement(derivatives[i]);\n            }\n        }\n        return a; \n    }\n\n    function getTotalAvailable() public view returns (uint256) {\n        uint256 balance = address(this).balance;\n        uint256 allocated = uint256(getTotalAllocated());\n        return balance > allocated ? balance - allocated : 0;\n    }\n\n    function isInsufficientBalance() public view returns (bool) {\n        uint256 balance = address(this).balance;\n        uint256 allocated = uint256(getTotalAllocated());\n        return balance < allocated ? true : false;\n    }\n\n    /**\n    * Called by derivative on second consecutive default\n    * We only pay if exposure amount is negative\n    */\n    function closeOut() external onlyDerivative {\n        DerivativeProxy proxy = DerivativeProxy(msg.sender);\n        (int32 notional, /* int64 amount */) = proxy.getPosition(address(this));\n        // Derivative has not expired, account is in default and collateral requirement is positive (only close out positions that require collateral)\n        require(!proxy.isExpired() && proxy.isInDefault(address(this)) && getCollateralRequirement(msg.sender) > 0, \"Not eligible for close out.\");\n        if (notional > 0)\n           proxy.goShort(notional, proxy.getLowEstimate()); \n        else\n           proxy.goLong(-notional, proxy.getHighEstimate());\n    }\n\n    /**\n    * Called by derivative on final settlement\n    * We only pay if MtM is negative\n    */\n    function settle(address payable destination, int128 amountToSend) external onlyDerivative {\n        // amountToSend guaranteed to be positive number - enforced by derivative contract.\n        DerivativeProxy proxy = DerivativeProxy(msg.sender);\n        (int32 notional, int128 amount) = proxy.getPosition(address(this));\n        // Derivative has expired, position is closed and amountToSend does not exceed final position amount\n        require(proxy.isExpired() && notional == 0 && amount < 0 && amountToSend <= -amount, \"Not eligible for final settlement\");\n        destination.transfer(uint256(amountToSend));\n    }\n\n    function goLong(address derivative, int32 notional, int64 xp) external onlyOwnerOrOperator {\n        DerivativeProxy proxy = DerivativeProxy(derivative);\n        proxy.goLong(notional, xp);\n    }\n\n    function goShort(address derivative, int32 notional, int64 xp) external onlyOwnerOrOperator {\n        DerivativeProxy proxy = DerivativeProxy(derivative);\n        proxy.goShort(notional, xp);\n    }\n\n    function isInUse() public view returns (bool) {\n        for (uint i = 0; i < derivatives.length; i++) {\n            if (contractExists(derivatives[i])) {\n                DerivativeProxy proxy = DerivativeProxy(derivatives[i]);\n                if (proxy.isInUse(address(this)))\n                    return true;\n            }\n        }\n        return false;\n    }\n\n    function() external payable {}\n}",
  "sourcePath": "/Users/Steffen/Projects/ProDerivatives/public/EthereumContracts/contracts/Account.sol",
  "compiler": {
    "name": "solc",
    "version": "0.5.0+commit.1d4f565a.Emscripten.clang"
  },
  "schemaVersion": "3.0.1",
  "updatedAt": "2019-04-15T19:02:09.491Z",
  "devdoc": {
    "details": "The Account is owned by a counterparty in a derivatives contract. It locks up funds required for settlement.",
    "methods": {
      "constructor": {
        "details": "Constructor "
      }
    },
    "title": "Account"
  },
  "userdoc": {
    "methods": {
      "closeOut()": {
        "notice": "Called by derivative on second consecutive default We only pay if exposure amount is negative"
      },
      "settle(address,int128)": {
        "notice": "Called by derivative on final settlement We only pay if MtM is negative"
      }
    }
  }
}