{
  "contractName": "Derivative",
  "abi": [
    {
      "constant": true,
      "inputs": [],
      "name": "variationMarginRate",
      "outputs": [
        {
          "name": "",
          "type": "uint8"
        }
      ],
      "payable": false,
      "stateMutability": "view",
      "type": "function"
    },
    {
      "constant": true,
      "inputs": [
        {
          "name": "",
          "type": "address"
        }
      ],
      "name": "verified",
      "outputs": [
        {
          "name": "",
          "type": "bool"
        }
      ],
      "payable": false,
      "stateMutability": "view",
      "type": "function"
    },
    {
      "constant": true,
      "inputs": [],
      "name": "valuationTime",
      "outputs": [
        {
          "name": "",
          "type": "uint64"
        }
      ],
      "payable": false,
      "stateMutability": "view",
      "type": "function"
    },
    {
      "constant": true,
      "inputs": [],
      "name": "initialMarginRate",
      "outputs": [
        {
          "name": "",
          "type": "uint8"
        }
      ],
      "payable": false,
      "stateMutability": "view",
      "type": "function"
    },
    {
      "constant": true,
      "inputs": [],
      "name": "owner",
      "outputs": [
        {
          "name": "",
          "type": "address"
        }
      ],
      "payable": false,
      "stateMutability": "view",
      "type": "function"
    },
    {
      "constant": true,
      "inputs": [],
      "name": "price",
      "outputs": [
        {
          "name": "",
          "type": "int64"
        }
      ],
      "payable": false,
      "stateMutability": "view",
      "type": "function"
    },
    {
      "constant": true,
      "inputs": [],
      "name": "expirationTime",
      "outputs": [
        {
          "name": "",
          "type": "uint64"
        }
      ],
      "payable": false,
      "stateMutability": "view",
      "type": "function"
    },
    {
      "constant": true,
      "inputs": [],
      "name": "fee",
      "outputs": [
        {
          "name": "",
          "type": "uint64"
        }
      ],
      "payable": false,
      "stateMutability": "view",
      "type": "function"
    },
    {
      "constant": true,
      "inputs": [
        {
          "name": "",
          "type": "address"
        }
      ],
      "name": "fees",
      "outputs": [
        {
          "name": "",
          "type": "uint256"
        }
      ],
      "payable": false,
      "stateMutability": "view",
      "type": "function"
    },
    {
      "inputs": [],
      "payable": false,
      "stateMutability": "nonpayable",
      "type": "constructor"
    },
    {
      "anonymous": false,
      "inputs": [
        {
          "indexed": false,
          "name": "account",
          "type": "address"
        },
        {
          "indexed": false,
          "name": "amount",
          "type": "uint256"
        }
      ],
      "name": "FeePaid",
      "type": "event"
    },
    {
      "anonymous": false,
      "inputs": [
        {
          "indexed": false,
          "name": "account",
          "type": "address"
        },
        {
          "indexed": false,
          "name": "notional",
          "type": "int32"
        },
        {
          "indexed": false,
          "name": "xp",
          "type": "int64"
        }
      ],
      "name": "OrderPosted",
      "type": "event"
    },
    {
      "anonymous": false,
      "inputs": [
        {
          "indexed": false,
          "name": "longAccount",
          "type": "address"
        },
        {
          "indexed": false,
          "name": "shortAccount",
          "type": "address"
        },
        {
          "indexed": false,
          "name": "notional",
          "type": "int32"
        },
        {
          "indexed": false,
          "name": "xp",
          "type": "int64"
        }
      ],
      "name": "TradeCleared",
      "type": "event"
    },
    {
      "constant": true,
      "inputs": [],
      "name": "isExpired",
      "outputs": [
        {
          "name": "",
          "type": "bool"
        }
      ],
      "payable": false,
      "stateMutability": "view",
      "type": "function"
    },
    {
      "constant": true,
      "inputs": [],
      "name": "isSettled",
      "outputs": [
        {
          "name": "",
          "type": "bool"
        }
      ],
      "payable": false,
      "stateMutability": "view",
      "type": "function"
    },
    {
      "constant": true,
      "inputs": [],
      "name": "getAccounts",
      "outputs": [
        {
          "name": "",
          "type": "address[]"
        }
      ],
      "payable": false,
      "stateMutability": "view",
      "type": "function"
    },
    {
      "constant": true,
      "inputs": [
        {
          "name": "account",
          "type": "address"
        }
      ],
      "name": "isInUse",
      "outputs": [
        {
          "name": "",
          "type": "bool"
        }
      ],
      "payable": false,
      "stateMutability": "view",
      "type": "function"
    },
    {
      "constant": true,
      "inputs": [
        {
          "name": "account",
          "type": "address"
        }
      ],
      "name": "getPosition",
      "outputs": [
        {
          "name": "",
          "type": "int32"
        },
        {
          "name": "",
          "type": "int128"
        }
      ],
      "payable": false,
      "stateMutability": "view",
      "type": "function"
    },
    {
      "constant": true,
      "inputs": [
        {
          "name": "account",
          "type": "address"
        }
      ],
      "name": "getBid",
      "outputs": [
        {
          "name": "",
          "type": "int32"
        },
        {
          "name": "",
          "type": "int64"
        }
      ],
      "payable": false,
      "stateMutability": "view",
      "type": "function"
    },
    {
      "constant": true,
      "inputs": [
        {
          "name": "account",
          "type": "address"
        }
      ],
      "name": "getAsk",
      "outputs": [
        {
          "name": "",
          "type": "int32"
        },
        {
          "name": "",
          "type": "int64"
        }
      ],
      "payable": false,
      "stateMutability": "view",
      "type": "function"
    },
    {
      "constant": true,
      "inputs": [],
      "name": "getHighEstimate",
      "outputs": [
        {
          "name": "",
          "type": "int64"
        }
      ],
      "payable": false,
      "stateMutability": "view",
      "type": "function"
    },
    {
      "constant": true,
      "inputs": [],
      "name": "getLowEstimate",
      "outputs": [
        {
          "name": "",
          "type": "int64"
        }
      ],
      "payable": false,
      "stateMutability": "view",
      "type": "function"
    },
    {
      "constant": true,
      "inputs": [
        {
          "name": "notional",
          "type": "int32"
        },
        {
          "name": "amount",
          "type": "int128"
        }
      ],
      "name": "getMarkToMarket",
      "outputs": [
        {
          "name": "",
          "type": "int128"
        }
      ],
      "payable": false,
      "stateMutability": "view",
      "type": "function"
    },
    {
      "constant": true,
      "inputs": [
        {
          "name": "notional",
          "type": "int32"
        },
        {
          "name": "amount",
          "type": "int128"
        }
      ],
      "name": "getVariationMargin",
      "outputs": [
        {
          "name": "",
          "type": "int128"
        }
      ],
      "payable": false,
      "stateMutability": "view",
      "type": "function"
    },
    {
      "constant": true,
      "inputs": [
        {
          "name": "notional",
          "type": "int32"
        },
        {
          "name": "amount",
          "type": "int128"
        }
      ],
      "name": "getInitialMargin",
      "outputs": [
        {
          "name": "",
          "type": "int128"
        }
      ],
      "payable": false,
      "stateMutability": "view",
      "type": "function"
    },
    {
      "constant": true,
      "inputs": [
        {
          "name": "notional",
          "type": "int32"
        },
        {
          "name": "amount",
          "type": "int128"
        }
      ],
      "name": "getMarginRequirement",
      "outputs": [
        {
          "name": "",
          "type": "int128"
        }
      ],
      "payable": false,
      "stateMutability": "view",
      "type": "function"
    },
    {
      "constant": true,
      "inputs": [
        {
          "name": "positionNotional",
          "type": "int32"
        },
        {
          "name": "positionValue",
          "type": "int128"
        },
        {
          "name": "bidNotional",
          "type": "int32"
        },
        {
          "name": "bidPrice",
          "type": "int64"
        },
        {
          "name": "askNotional",
          "type": "int32"
        },
        {
          "name": "askPrice",
          "type": "int64"
        }
      ],
      "name": "getCollateralRequirement",
      "outputs": [
        {
          "name": "",
          "type": "int128"
        }
      ],
      "payable": false,
      "stateMutability": "view",
      "type": "function"
    },
    {
      "constant": false,
      "inputs": [
        {
          "name": "notional",
          "type": "int32"
        },
        {
          "name": "bidPrice",
          "type": "int64"
        }
      ],
      "name": "goLong",
      "outputs": [],
      "payable": false,
      "stateMutability": "nonpayable",
      "type": "function"
    },
    {
      "constant": false,
      "inputs": [
        {
          "name": "notional",
          "type": "int32"
        },
        {
          "name": "askPrice",
          "type": "int64"
        }
      ],
      "name": "goShort",
      "outputs": [],
      "payable": false,
      "stateMutability": "nonpayable",
      "type": "function"
    },
    {
      "constant": false,
      "inputs": [
        {
          "name": "recipient",
          "type": "address"
        },
        {
          "name": "notional",
          "type": "int32"
        }
      ],
      "name": "transferNotional",
      "outputs": [],
      "payable": false,
      "stateMutability": "nonpayable",
      "type": "function"
    },
    {
      "constant": false,
      "inputs": [
        {
          "name": "account",
          "type": "address"
        },
        {
          "name": "isValid",
          "type": "bool"
        }
      ],
      "name": "setVerified",
      "outputs": [],
      "payable": false,
      "stateMutability": "nonpayable",
      "type": "function"
    },
    {
      "constant": false,
      "inputs": [
        {
          "name": "account",
          "type": "address"
        }
      ],
      "name": "addVerifiedAccount",
      "outputs": [],
      "payable": false,
      "stateMutability": "nonpayable",
      "type": "function"
    },
    {
      "constant": false,
      "inputs": [
        {
          "name": "newOwner",
          "type": "address"
        }
      ],
      "name": "transferOwnership",
      "outputs": [],
      "payable": false,
      "stateMutability": "nonpayable",
      "type": "function"
    },
    {
      "constant": false,
      "inputs": [],
      "name": "destroy",
      "outputs": [],
      "payable": false,
      "stateMutability": "nonpayable",
      "type": "function"
    },
    {
      "constant": false,
      "inputs": [],
      "name": "payFee",
      "outputs": [],
      "payable": true,
      "stateMutability": "payable",
      "type": "function"
    }
  ],
  "bytecode": "0x608060405234801561001057600080fd5b50336000806101000a81548173ffffffffffffffffffffffffffffffffffffffff021916908373ffffffffffffffffffffffffffffffffffffffff16021790555061554f806100606000396000f3fe60806040526004361061018b576000357c0100000000000000000000000000000000000000000000000000000000900463ffffffff16806304ff83b5146101905780630db065f4146101c1578063151235551461022a57806316c197391461028f57806329610252146103075780632f13b60c146103115780633270bb5b14610340578063330c6fff1461036f5780635323fa75146103ae5780635c5793b8146103df578063701decff146104445780637f01020b1461048f57806383197ef0146104ed578063892f3de9146105045780638a48ac03146105355780638da5cb5b146105a15780639c1ae08f146105f85780639cf5c613146106915780639d5ab146146106ee578063a035b1fe1461073f578063aa0a958f14610770578063b10ff68d146107bb578063b2eef69714610820578063c8b342ab14610885578063ca472fdd146108fd578063d1770fcc14610966578063da284dcc14610997578063ddca3f43146109d6578063de129f4e14610a15578063f2fde38b14610a8d578063faaebd2114610ade575b600080fd5b34801561019c57600080fd5b506101a5610b43565b604051808260ff1660ff16815260200191505060405180910390f35b3480156101cd57600080fd5b50610210600480360360208110156101e457600080fd5b81019080803573ffffffffffffffffffffffffffffffffffffffff169060200190929190505050610b56565b604051808215151515815260200191505060405180910390f35b34801561023657600080fd5b506102736004803603604081101561024d57600080fd5b81019080803560030b90602001909291908035600f0b9060200190929190505050610b76565b6040518082600f0b600f0b815260200191505060405180910390f35b34801561029b57600080fd5b506102de600480360360208110156102b257600080fd5b81019080803573ffffffffffffffffffffffffffffffffffffffff169060200190929190505050610b9a565b604051808360030b60030b815260200182600f0b600f0b81526020019250505060405180910390f35b61030f610c46565b005b34801561031d57600080fd5b50610326610d00565b604051808215151515815260200191505060405180910390f35b34801561034c57600080fd5b50610355610d4b565b604051808215151515815260200191505060405180910390f35b34801561037b57600080fd5b50610384610e3c565b604051808267ffffffffffffffff1667ffffffffffffffff16815260200191505060405180910390f35b3480156103ba57600080fd5b506103c3610e56565b604051808260ff1660ff16815260200191505060405180910390f35b3480156103eb57600080fd5b506104286004803603604081101561040257600080fd5b81019080803560030b90602001909291908035600f0b9060200190929190505050610e69565b6040518082600f0b600f0b815260200191505060405180910390f35b34801561045057600080fd5b5061048d6004803603604081101561046757600080fd5b81019080803560030b9060200190929190803560070b9060200190929190505050610ee6565b005b34801561049b57600080fd5b506104eb600480360360408110156104b257600080fd5b81019080803573ffffffffffffffffffffffffffffffffffffffff169060200190929190803560030b90602001909291905050506111fd565b005b3480156104f957600080fd5b50610502611838565b005b34801561051057600080fd5b506105196119c2565b604051808260070b60070b815260200191505060405180910390f35b34801561054157600080fd5b5061054a6119ff565b6040518080602001828103825283818151815260200191508051906020019060200280838360005b8381101561058d578082015181840152602081019050610572565b505050509050019250505060405180910390f35b3480156105ad57600080fd5b506105b6611a8d565b604051808273ffffffffffffffffffffffffffffffffffffffff1673ffffffffffffffffffffffffffffffffffffffff16815260200191505060405180910390f35b34801561060457600080fd5b50610675600480360360c081101561061b57600080fd5b81019080803560030b90602001909291908035600f0b9060200190929190803560030b9060200190929190803560070b9060200190929190803560030b9060200190929190803560070b9060200190929190505050611ab2565b6040518082600f0b600f0b815260200191505060405180910390f35b34801561069d57600080fd5b506106ec600480360360408110156106b457600080fd5b81019080803573ffffffffffffffffffffffffffffffffffffffff169060200190929190803515159060200190929190505050611b3f565b005b3480156106fa57600080fd5b5061073d6004803603602081101561071157600080fd5b81019080803573ffffffffffffffffffffffffffffffffffffffff169060200190929190505050611c5e565b005b34801561074b57600080fd5b50610754611e2b565b604051808260070b60070b815260200191505060405180910390f35b34801561077c57600080fd5b506107b96004803603604081101561079357600080fd5b81019080803560030b9060200190929190803560070b9060200190929190505050611e3e565b005b3480156107c757600080fd5b50610804600480360360408110156107de57600080fd5b81019080803560030b90602001909291908035600f0b9060200190929190505050612152565b6040518082600f0b600f0b815260200191505060405180910390f35b34801561082c57600080fd5b506108696004803603604081101561084357600080fd5b81019080803560030b90602001909291908035600f0b9060200190929190505050612199565b6040518082600f0b600f0b815260200191505060405180910390f35b34801561089157600080fd5b506108d4600480360360208110156108a857600080fd5b81019080803573ffffffffffffffffffffffffffffffffffffffff16906020019092919050505061224d565b604051808360030b60030b81526020018260070b60070b81526020019250505060405180910390f35b34801561090957600080fd5b5061094c6004803603602081101561092057600080fd5b81019080803573ffffffffffffffffffffffffffffffffffffffff1690602001909291905050506122f9565b604051808215151515815260200191505060405180910390f35b34801561097257600080fd5b5061097b6123ce565b604051808260070b60070b815260200191505060405180910390f35b3480156109a357600080fd5b506109ac61240b565b604051808267ffffffffffffffff1667ffffffffffffffff16815260200191505060405180910390f35b3480156109e257600080fd5b506109eb612425565b604051808267ffffffffffffffff1667ffffffffffffffff16815260200191505060405180910390f35b348015610a2157600080fd5b50610a6460048036036020811015610a3857600080fd5b81019080803573ffffffffffffffffffffffffffffffffffffffff16906020019092919050505061243f565b604051808360030b60030b81526020018260070b60070b81526020019250505060405180910390f35b348015610a9957600080fd5b50610adc60048036036020811015610ab057600080fd5b81019080803573ffffffffffffffffffffffffffffffffffffffff1690602001909291905050506124eb565b005b348015610aea57600080fd5b50610b2d60048036036020811015610b0157600080fd5b81019080803573ffffffffffffffffffffffffffffffffffffffff169060200190929190505050612697565b6040518082815260200191505060405180910390f35b600960119054906101000a900460ff1681565b60026020528060005260406000206000915054906101000a900460ff1681565b600081600960129054906101000a900460070b60070b8460030b0201905092915050565b600080600460008473ffffffffffffffffffffffffffffffffffffffff1673ffffffffffffffffffffffffffffffffffffffff16815260200190815260200160002060000160009054906101000a900460030b600460008573ffffffffffffffffffffffffffffffffffffffff1673ffffffffffffffffffffffffffffffffffffffff16815260200190815260200160002060000160049054906101000a9004600f0b91509150915091565b34600360003373ffffffffffffffffffffffffffffffffffffffff1673ffffffffffffffffffffffffffffffffffffffff168152602001908152602001600020600082825401925050819055507f075a2720282fdf622141dae0b048ef90a21a7e57c134c76912d19d006b3b3f6f3334604051808373ffffffffffffffffffffffffffffffffffffffff1673ffffffffffffffffffffffffffffffffffffffff1681526020018281526020019250505060405180910390a1565b6000600960009054906101000a900467ffffffffffffffff1667ffffffffffffffff16600960089054906101000a900467ffffffffffffffff1667ffffffffffffffff161015905090565b600080600090505b600180549050811015610e3357600060046000600184815481101515610d7557fe5b9060005260206000200160009054906101000a900473ffffffffffffffffffffffffffffffffffffffff1673ffffffffffffffffffffffffffffffffffffffff1673ffffffffffffffffffffffffffffffffffffffff168152602001908152602001600020905060008160000160009054906101000a900460030b60030b141580610e15575060008160000160049054906101000a9004600f0b600f0b14155b15610e2557600092505050610e39565b508080600101915050610d53565b50600190505b90565b600960089054906101000a900467ffffffffffffffff1681565b600960109054906101000a900460ff1681565b6000808360030b1415610e7f5760009050610ee0565b600082600f0b1315610eb6576064600960109054906101000a900460ff1660ff168302600f0b811515610eae57fe5b059050610ee0565b6064600960109054906101000a900460ff1660ff168360000302600f0b811515610edc57fe5b0590505b92915050565b610eee610d00565b158015610f445750600260003373ffffffffffffffffffffffffffffffffffffffff1673ffffffffffffffffffffffffffffffffffffffff16815260200190815260200160002060009054906101000a900460ff165b8015610faf5750600860149054906101000a900467ffffffffffffffff1667ffffffffffffffff16600360003373ffffffffffffffffffffffffffffffffffffffff1673ffffffffffffffffffffffffffffffffffffffff1681526020019081526020016000205410155b1515611023576040517f08c379a00000000000000000000000000000000000000000000000000000000081526004018080602001828103825260158152602001807f4e6f7420656c656769626c6520746f207472616465000000000000000000000081525060200191505060405180910390fd5b60008260030b1215801561104a57506000600960129054906101000a900460070b60070b12155b15156110e4576040517f08c379a00000000000000000000000000000000000000000000000000000000081526004018080602001828103825260278152602001807f4e6f74696f6e616c20616e64205072696365206d757374206265206e6f6e2d6e81526020017f656761746976650000000000000000000000000000000000000000000000000081525060400191505060405180910390fd5b6110ef3383836126af565b1515611163576040517f08c379a00000000000000000000000000000000000000000000000000000000081526004018080602001828103825260178152602001807f496e73756666696369656e7420636f6c6c61746572616c00000000000000000081525060200191505060405180910390fd5b61116e33838361280d565b7fea5be23f76e20d2af179614aba30cdbc30dac48b9133a6909feb2370e6bc508b338360000383604051808473ffffffffffffffffffffffffffffffffffffffff1673ffffffffffffffffffffffffffffffffffffffff1681526020018360030b60030b81526020018260070b60070b8152602001935050505060405180910390a16111f933612ce9565b5050565b611205610d00565b15801561125b5750600260003373ffffffffffffffffffffffffffffffffffffffff1673ffffffffffffffffffffffffffffffffffffffff16815260200190815260200160002060009054906101000a900460ff165b80156112c65750600860149054906101000a900467ffffffffffffffff1667ffffffffffffffff16600360003373ffffffffffffffffffffffffffffffffffffffff1673ffffffffffffffffffffffffffffffffffffffff1681526020019081526020016000205410155b151561133a576040517f08c379a00000000000000000000000000000000000000000000000000000000081526004018080602001828103825260158152602001807f4e6f7420656c656769626c6520746f207472616465000000000000000000000081525060200191505060405180910390fd5b600260008373ffffffffffffffffffffffffffffffffffffffff1673ffffffffffffffffffffffffffffffffffffffff16815260200190815260200160002060009054906101000a900460ff1680156113f25750600860149054906101000a900467ffffffffffffffff1667ffffffffffffffff16600360008473ffffffffffffffffffffffffffffffffffffffff1673ffffffffffffffffffffffffffffffffffffffff1681526020019081526020016000205410155b1515611466576040517f08c379a00000000000000000000000000000000000000000000000000000000081526004018080602001828103825260188152602001807f526563697069656e74206e6f742072656769737465726564000000000000000081525060200191505060405180910390fd5b60008160030b1315156114e1576040517f08c379a000000000000000000000000000000000000000000000000000000000815260040180806020018281038252601d8152602001807f4e6f74696f6e616c206d7573742062652067726561746572207a65726f00000081525060200191505060405180910390fd5b6116d4336116cf83600460003373ffffffffffffffffffffffffffffffffffffffff1673ffffffffffffffffffffffffffffffffffffffff16815260200190815260200160002060000160009054906101000a900460030b03600460003373ffffffffffffffffffffffffffffffffffffffff1673ffffffffffffffffffffffffffffffffffffffff16815260200190815260200160002060000160049054906101000a9004600f0b600560003373ffffffffffffffffffffffffffffffffffffffff1673ffffffffffffffffffffffffffffffffffffffff16815260200190815260200160002060000160009054906101000a900460030b600560003373ffffffffffffffffffffffffffffffffffffffff1673ffffffffffffffffffffffffffffffffffffffff16815260200190815260200160002060000160049054906101000a900460070b600660003373ffffffffffffffffffffffffffffffffffffffff1673ffffffffffffffffffffffffffffffffffffffff16815260200190815260200160002060000160009054906101000a900460030b600660003373ffffffffffffffffffffffffffffffffffffffff1673ffffffffffffffffffffffffffffffffffffffff16815260200190815260200160002060000160049054906101000a900460070b611ab2565b6134a9565b1515611748576040517f08c379a00000000000000000000000000000000000000000000000000000000081526004018080602001828103825260178152602001807f496e73756666696369656e7420636f6c6c61746572616c00000000000000000081525060200191505060405180910390fd5b80600460003373ffffffffffffffffffffffffffffffffffffffff1673ffffffffffffffffffffffffffffffffffffffff16815260200190815260200160002060000160008282829054906101000a900460030b0392506101000a81548163ffffffff021916908360030b63ffffffff16021790555080600460008473ffffffffffffffffffffffffffffffffffffffff1673ffffffffffffffffffffffffffffffffffffffff16815260200190815260200160002060000160008282829054906101000a900460030b0192506101000a81548163ffffffff021916908360030b63ffffffff1602179055505050565b6000809054906101000a900473ffffffffffffffffffffffffffffffffffffffff1673ffffffffffffffffffffffffffffffffffffffff163373ffffffffffffffffffffffffffffffffffffffff161415156118fc576040517f08c379a000000000000000000000000000000000000000000000000000000000815260040180806020018281038252600e8152602001807f4e6f7420617574686f72697a656400000000000000000000000000000000000081525060200191505060405180910390fd5b611904610d00565b80156119145750611913610d4b565b5b1515611988576040517f08c379a000000000000000000000000000000000000000000000000000000000815260040180806020018281038252600f8152602001807f436f6e747261637420696e20757365000000000000000000000000000000000081525060200191505060405180910390fd5b6000809054906101000a900473ffffffffffffffffffffffffffffffffffffffff1673ffffffffffffffffffffffffffffffffffffffff16ff5b60006064600960119054906101000a900460ff1660640360ff16600960129054906101000a900460070b0260070b8115156119f957fe5b05905090565b60606001805480602002602001604051908101604052809291908181526020018280548015611a8357602002820191906000526020600020905b8160009054906101000a900473ffffffffffffffffffffffffffffffffffffffff1673ffffffffffffffffffffffffffffffffffffffff1681526020019060010190808311611a39575b5050505050905090565b6000809054906101000a900473ffffffffffffffffffffffffffffffffffffffff1681565b600080611abf8888612199565b90506000611ad9878a018760070b8960030b028a03612199565b90506000611af3868b038660070b8860030b028b01612199565b905060008383039050600084830390506000859050600083600f0b1315611b1a5782810190505b600082600f0b1315611b2c5781810190505b8096505050505050509695505050505050565b6000809054906101000a900473ffffffffffffffffffffffffffffffffffffffff1673ffffffffffffffffffffffffffffffffffffffff163373ffffffffffffffffffffffffffffffffffffffff16141515611c03576040517f08c379a000000000000000000000000000000000000000000000000000000000815260040180806020018281038252600e8152602001807f4e6f7420617574686f72697a656400000000000000000000000000000000000081525060200191505060405180910390fd5b80600260008473ffffffffffffffffffffffffffffffffffffffff1673ffffffffffffffffffffffffffffffffffffffff16815260200190815260200160002060006101000a81548160ff0219169083151502179055505050565b6000809054906101000a900473ffffffffffffffffffffffffffffffffffffffff1673ffffffffffffffffffffffffffffffffffffffff163373ffffffffffffffffffffffffffffffffffffffff16141515611d22576040517f08c379a000000000000000000000000000000000000000000000000000000000815260040180806020018281038252600e8152602001807f4e6f7420617574686f72697a656400000000000000000000000000000000000081525060200191505060405180910390fd5b60008090505b600180549050811015611db5578173ffffffffffffffffffffffffffffffffffffffff16600182815481101515611d5b57fe5b9060005260206000200160009054906101000a900473ffffffffffffffffffffffffffffffffffffffff1673ffffffffffffffffffffffffffffffffffffffff161415611da85750611e28565b8080600101915050611d28565b5060018190806001815401808255809150509060018203906000526020600020016000909192909190916101000a81548173ffffffffffffffffffffffffffffffffffffffff021916908373ffffffffffffffffffffffffffffffffffffffff16021790555050611e27816001611b3f565b5b50565b600960129054906101000a900460070b81565b611e46610d00565b158015611e9c5750600260003373ffffffffffffffffffffffffffffffffffffffff1673ffffffffffffffffffffffffffffffffffffffff16815260200190815260200160002060009054906101000a900460ff165b8015611f075750600860149054906101000a900467ffffffffffffffff1667ffffffffffffffff16600360003373ffffffffffffffffffffffffffffffffffffffff1673ffffffffffffffffffffffffffffffffffffffff1681526020019081526020016000205410155b1515611f7b576040517f08c379a00000000000000000000000000000000000000000000000000000000081526004018080602001828103825260158152602001807f4e6f7420656c656769626c6520746f207472616465000000000000000000000081525060200191505060405180910390fd5b60008260030b12158015611fa257506000600960129054906101000a900460070b60070b12155b151561203c576040517f08c379a00000000000000000000000000000000000000000000000000000000081526004018080602001828103825260278152602001807f4e6f74696f6e616c20616e64205072696365206d757374206265206e6f6e2d6e81526020017f656761746976650000000000000000000000000000000000000000000000000081525060400191505060405180910390fd5b61204733838361376a565b15156120bb576040517f08c379a00000000000000000000000000000000000000000000000000000000081526004018080602001828103825260178152602001807f496e73756666696369656e7420636f6c6c61746572616c00000000000000000081525060200191505060405180910390fd5b6120c63383836138c8565b7fea5be23f76e20d2af179614aba30cdbc30dac48b9133a6909feb2370e6bc508b338383604051808473ffffffffffffffffffffffffffffffffffffffff1673ffffffffffffffffffffffffffffffffffffffff1681526020018360030b60030b81526020018260070b60070b8152602001935050505060405180910390a161214e33613da4565b5050565b6000808360030b131561217b57816121686119c2565b60070b8460030b02016000039050612193565b816121846123ce565b60070b8460030b020160000390505b92915050565b6000808360030b1380156121b15750600082600f0b12155b156121bf5760009050612247565b60008360030b14156121ec57600082600f0b1215156121e15760009050612247565b816000039050612247565b60006121f88484612152565b6122028585610e69565b019050600081600f0b121561221657600090505b60008460030b138015612231575082600003600f0b81600f0b135b156122425782600003915050612247565b809150505b92915050565b600080600560008473ffffffffffffffffffffffffffffffffffffffff1673ffffffffffffffffffffffffffffffffffffffff16815260200190815260200160002060000160009054906101000a900460030b600560008573ffffffffffffffffffffffffffffffffffffffff1673ffffffffffffffffffffffffffffffffffffffff16815260200190815260200160002060000160049054906101000a900460070b91509150915091565b6000600260008373ffffffffffffffffffffffffffffffffffffffff1673ffffffffffffffffffffffffffffffffffffffff16815260200190815260200160002060009054906101000a900460ff1615806123b65750612357610d00565b80156123b557506000600460008473ffffffffffffffffffffffffffffffffffffffff1673ffffffffffffffffffffffffffffffffffffffff16815260200190815260200160002060000160049054906101000a9004600f0b600f0b145b5b156123c457600090506123c9565b600190505b919050565b60006064600960119054906101000a900460ff1660640160ff16600960129054906101000a900460070b0260070b81151561240557fe5b05905090565b600960009054906101000a900467ffffffffffffffff1681565b600860149054906101000a900467ffffffffffffffff1681565b600080600660008473ffffffffffffffffffffffffffffffffffffffff1673ffffffffffffffffffffffffffffffffffffffff16815260200190815260200160002060000160009054906101000a900460030b600660008573ffffffffffffffffffffffffffffffffffffffff1673ffffffffffffffffffffffffffffffffffffffff16815260200190815260200160002060000160049054906101000a900460070b91509150915091565b6000809054906101000a900473ffffffffffffffffffffffffffffffffffffffff1673ffffffffffffffffffffffffffffffffffffffff163373ffffffffffffffffffffffffffffffffffffffff161415156125af576040517f08c379a000000000000000000000000000000000000000000000000000000000815260040180806020018281038252600e8152602001807f4e6f7420617574686f72697a656400000000000000000000000000000000000081525060200191505060405180910390fd5b600073ffffffffffffffffffffffffffffffffffffffff168173ffffffffffffffffffffffffffffffffffffffff1614151515612654576040517f08c379a000000000000000000000000000000000000000000000000000000000815260040180806020018281038252600f8152602001807f496e76616c69642061646472657373000000000000000000000000000000000081525060200191505060405180910390fd5b806000806101000a81548173ffffffffffffffffffffffffffffffffffffffff021916908373ffffffffffffffffffffffffffffffffffffffff16021790555050565b60036020528060005260406000206000915090505481565b6000612804846127ff600460008873ffffffffffffffffffffffffffffffffffffffff1673ffffffffffffffffffffffffffffffffffffffff16815260200190815260200160002060000160009054906101000a900460030b600460008973ffffffffffffffffffffffffffffffffffffffff1673ffffffffffffffffffffffffffffffffffffffff16815260200190815260200160002060000160049054906101000a9004600f0b600560008a73ffffffffffffffffffffffffffffffffffffffff1673ffffffffffffffffffffffffffffffffffffffff16815260200190815260200160002060000160009054906101000a900460030b600560008b73ffffffffffffffffffffffffffffffffffffffff1673ffffffffffffffffffffffffffffffffffffffff16815260200190815260200160002060000160049054906101000a900460070b8989611ab2565b6134a9565b90509392505050565b6000600660008573ffffffffffffffffffffffffffffffffffffffff1673ffffffffffffffffffffffffffffffffffffffff168152602001908152602001600020905060008360030b1480612865575060008260070b145b156128c55760008160000160006101000a81548163ffffffff021916908360030b63ffffffff16021790555060008160000160046101000a81548167ffffffffffffffff021916908360070b67ffffffffffffffff16021790555061291a565b828160000160006101000a81548163ffffffff021916908360030b63ffffffff160217905550818160000160046101000a81548167ffffffffffffffff021916908360070b67ffffffffffffffff1602179055505b8373ffffffffffffffffffffffffffffffffffffffff16600760009054906101000a900473ffffffffffffffffffffffffffffffffffffffff1673ffffffffffffffffffffffffffffffffffffffff1614156129d65780600001600c9054906101000a900473ffffffffffffffffffffffffffffffffffffffff16600760006101000a81548173ffffffffffffffffffffffffffffffffffffffff021916908373ffffffffffffffffffffffffffffffffffffffff1602179055505b60006129e185614564565b9050600073ffffffffffffffffffffffffffffffffffffffff168173ffffffffffffffffffffffffffffffffffffffff16141515612abf5781600001600c9054906101000a900473ffffffffffffffffffffffffffffffffffffffff16600660008373ffffffffffffffffffffffffffffffffffffffff1673ffffffffffffffffffffffffffffffffffffffff168152602001908152602001600020600001600c6101000a81548173ffffffffffffffffffffffffffffffffffffffff021916908373ffffffffffffffffffffffffffffffffffffffff1602179055505b612ad98260000160049054906101000a900460070b614771565b9050600073ffffffffffffffffffffffffffffffffffffffff168173ffffffffffffffffffffffffffffffffffffffff161415612bbb57600760009054906101000a900473ffffffffffffffffffffffffffffffffffffffff1682600001600c6101000a81548173ffffffffffffffffffffffffffffffffffffffff021916908373ffffffffffffffffffffffffffffffffffffffff16021790555084600760006101000a81548173ffffffffffffffffffffffffffffffffffffffff021916908373ffffffffffffffffffffffffffffffffffffffff160217905550612ce2565b600660008273ffffffffffffffffffffffffffffffffffffffff1673ffffffffffffffffffffffffffffffffffffffff168152602001908152602001600020600001600c9054906101000a900473ffffffffffffffffffffffffffffffffffffffff1682600001600c6101000a81548173ffffffffffffffffffffffffffffffffffffffff021916908373ffffffffffffffffffffffffffffffffffffffff16021790555084600660008373ffffffffffffffffffffffffffffffffffffffff1673ffffffffffffffffffffffffffffffffffffffff168152602001908152602001600020600001600c6101000a81548173ffffffffffffffffffffffffffffffffffffffff021916908373ffffffffffffffffffffffffffffffffffffffff1602179055505b5050505050565b8073ffffffffffffffffffffffffffffffffffffffff16600760009054906101000a900473ffffffffffffffffffffffffffffffffffffffff1673ffffffffffffffffffffffffffffffffffffffff1614156134a657600060066000600760009054906101000a900473ffffffffffffffffffffffffffffffffffffffff1673ffffffffffffffffffffffffffffffffffffffff1673ffffffffffffffffffffffffffffffffffffffff16815260200190815260200160002060000160049054906101000a900460070b90506000600860009054906101000a900473ffffffffffffffffffffffffffffffffffffffff1690505b600073ffffffffffffffffffffffffffffffffffffffff168173ffffffffffffffffffffffffffffffffffffffff1614158015612e8e5750600060066000600760009054906101000a900473ffffffffffffffffffffffffffffffffffffffff1673ffffffffffffffffffffffffffffffffffffffff1673ffffffffffffffffffffffffffffffffffffffff16815260200190815260200160002060000160009054906101000a900460030b60030b135b8015612eec57506000600560008373ffffffffffffffffffffffffffffffffffffffff1673ffffffffffffffffffffffffffffffffffffffff16815260200190815260200160002060000160009054906101000a900460030b60030b135b8015612f4d5750600560008273ffffffffffffffffffffffffffffffffffffffff1673ffffffffffffffffffffffffffffffffffffffff16815260200190815260200160002060000160049054906101000a900460070b60070b8260070b13155b15613493576000600560008373ffffffffffffffffffffffffffffffffffffffff1673ffffffffffffffffffffffffffffffffffffffff16815260200190815260200160002060000160009054906101000a900460030b90508060030b60066000600760009054906101000a900473ffffffffffffffffffffffffffffffffffffffff1673ffffffffffffffffffffffffffffffffffffffff1673ffffffffffffffffffffffffffffffffffffffff16815260200190815260200160002060000160009054906101000a900460030b60030b121561309a5760066000600760009054906101000a900473ffffffffffffffffffffffffffffffffffffffff1673ffffffffffffffffffffffffffffffffffffffff1673ffffffffffffffffffffffffffffffffffffffff16815260200190815260200160002060000160009054906101000a900460030b90505b80600460008673ffffffffffffffffffffffffffffffffffffffff1673ffffffffffffffffffffffffffffffffffffffff16815260200190815260200160002060000160008282829054906101000a900460030b0392506101000a81548163ffffffff021916908360030b63ffffffff1602179055508260070b8160030b02600460008673ffffffffffffffffffffffffffffffffffffffff1673ffffffffffffffffffffffffffffffffffffffff16815260200190815260200160002060000160048282829054906101000a9004600f0b0192506101000a8154816fffffffffffffffffffffffffffffffff0219169083600f0b6fffffffffffffffffffffffffffffffff16021790555080600460008473ffffffffffffffffffffffffffffffffffffffff1673ffffffffffffffffffffffffffffffffffffffff16815260200190815260200160002060000160008282829054906101000a900460030b0192506101000a81548163ffffffff021916908360030b63ffffffff1602179055508260070b8160030b02600460008473ffffffffffffffffffffffffffffffffffffffff1673ffffffffffffffffffffffffffffffffffffffff16815260200190815260200160002060000160048282829054906101000a9004600f0b0392506101000a8154816fffffffffffffffffffffffffffffffff0219169083600f0b6fffffffffffffffffffffffffffffffff1602179055508060066000600760009054906101000a900473ffffffffffffffffffffffffffffffffffffffff1673ffffffffffffffffffffffffffffffffffffffff1673ffffffffffffffffffffffffffffffffffffffff16815260200190815260200160002060000160008282829054906101000a900460030b0392506101000a81548163ffffffff021916908360030b63ffffffff16021790555080600560008473ffffffffffffffffffffffffffffffffffffffff1673ffffffffffffffffffffffffffffffffffffffff16815260200190815260200160002060000160008282829054906101000a900460030b0392506101000a81548163ffffffff021916908360030b63ffffffff1602179055506133cc8285838661490c565b6000600560008473ffffffffffffffffffffffffffffffffffffffff1673ffffffffffffffffffffffffffffffffffffffff16815260200190815260200160002060000160009054906101000a900460030b60030b141561348d57600560008373ffffffffffffffffffffffffffffffffffffffff1673ffffffffffffffffffffffffffffffffffffffff168152602001908152602001600020600001600c9054906101000a900473ffffffffffffffffffffffffffffffffffffffff1691505b50612ddd565b61349b6149c5565b6134a3614c6e565b50505b50565b600080613694600460008673ffffffffffffffffffffffffffffffffffffffff1673ffffffffffffffffffffffffffffffffffffffff16815260200190815260200160002060000160009054906101000a900460030b600460008773ffffffffffffffffffffffffffffffffffffffff1673ffffffffffffffffffffffffffffffffffffffff16815260200190815260200160002060000160049054906101000a9004600f0b600560008873ffffffffffffffffffffffffffffffffffffffff1673ffffffffffffffffffffffffffffffffffffffff16815260200190815260200160002060000160009054906101000a900460030b600560008973ffffffffffffffffffffffffffffffffffffffff1673ffffffffffffffffffffffffffffffffffffffff16815260200190815260200160002060000160049054906101000a900460070b600660008a73ffffffffffffffffffffffffffffffffffffffff1673ffffffffffffffffffffffffffffffffffffffff16815260200190815260200160002060000160009054906101000a900460030b600660008b73ffffffffffffffffffffffffffffffffffffffff1673ffffffffffffffffffffffffffffffffffffffff16815260200190815260200160002060000160049054906101000a900460070b611ab2565b905080600f0b83600f0b1315156136af576001915050613764565b600084905060008173ffffffffffffffffffffffffffffffffffffffff166369674ec96040518163ffffffff167c010000000000000000000000000000000000000000000000000000000002815260040160206040518083038186803b15801561371857600080fd5b505afa15801561372c573d6000803e3d6000fd5b505050506040513d602081101561374257600080fd5b8101908080519060200190929190505050905080838603600f0b111593505050505b92915050565b60006138bf846138ba600460008873ffffffffffffffffffffffffffffffffffffffff1673ffffffffffffffffffffffffffffffffffffffff16815260200190815260200160002060000160009054906101000a900460030b600460008973ffffffffffffffffffffffffffffffffffffffff1673ffffffffffffffffffffffffffffffffffffffff16815260200190815260200160002060000160049054906101000a9004600f0b8787600660008c73ffffffffffffffffffffffffffffffffffffffff1673ffffffffffffffffffffffffffffffffffffffff16815260200190815260200160002060000160009054906101000a900460030b600660008d73ffffffffffffffffffffffffffffffffffffffff1673ffffffffffffffffffffffffffffffffffffffff16815260200190815260200160002060000160049054906101000a900460070b611ab2565b6134a9565b90509392505050565b6000600560008573ffffffffffffffffffffffffffffffffffffffff1673ffffffffffffffffffffffffffffffffffffffff168152602001908152602001600020905060008360030b1480613920575060008260070b145b156139805760008160000160006101000a81548163ffffffff021916908360030b63ffffffff16021790555060008160000160046101000a81548167ffffffffffffffff021916908360070b67ffffffffffffffff1602179055506139d5565b828160000160006101000a81548163ffffffff021916908360030b63ffffffff160217905550818160000160046101000a81548167ffffffffffffffff021916908360070b67ffffffffffffffff1602179055505b8373ffffffffffffffffffffffffffffffffffffffff16600860009054906101000a900473ffffffffffffffffffffffffffffffffffffffff1673ffffffffffffffffffffffffffffffffffffffff161415613a915780600001600c9054906101000a900473ffffffffffffffffffffffffffffffffffffffff16600860006101000a81548173ffffffffffffffffffffffffffffffffffffffff021916908373ffffffffffffffffffffffffffffffffffffffff1602179055505b6000613a9c85614f17565b9050600073ffffffffffffffffffffffffffffffffffffffff168173ffffffffffffffffffffffffffffffffffffffff16141515613b7a5781600001600c9054906101000a900473ffffffffffffffffffffffffffffffffffffffff16600560008373ffffffffffffffffffffffffffffffffffffffff1673ffffffffffffffffffffffffffffffffffffffff168152602001908152602001600020600001600c6101000a81548173ffffffffffffffffffffffffffffffffffffffff021916908373ffffffffffffffffffffffffffffffffffffffff1602179055505b613b948260000160049054906101000a900460070b615124565b9050600073ffffffffffffffffffffffffffffffffffffffff168173ffffffffffffffffffffffffffffffffffffffff161415613c7657600860009054906101000a900473ffffffffffffffffffffffffffffffffffffffff1682600001600c6101000a81548173ffffffffffffffffffffffffffffffffffffffff021916908373ffffffffffffffffffffffffffffffffffffffff16021790555084600860006101000a81548173ffffffffffffffffffffffffffffffffffffffff021916908373ffffffffffffffffffffffffffffffffffffffff160217905550613d9d565b600560008273ffffffffffffffffffffffffffffffffffffffff1673ffffffffffffffffffffffffffffffffffffffff168152602001908152602001600020600001600c9054906101000a900473ffffffffffffffffffffffffffffffffffffffff1682600001600c6101000a81548173ffffffffffffffffffffffffffffffffffffffff021916908373ffffffffffffffffffffffffffffffffffffffff16021790555084600560008373ffffffffffffffffffffffffffffffffffffffff1673ffffffffffffffffffffffffffffffffffffffff168152602001908152602001600020600001600c6101000a81548173ffffffffffffffffffffffffffffffffffffffff021916908373ffffffffffffffffffffffffffffffffffffffff1602179055505b5050505050565b8073ffffffffffffffffffffffffffffffffffffffff16600860009054906101000a900473ffffffffffffffffffffffffffffffffffffffff1673ffffffffffffffffffffffffffffffffffffffff16141561456157600060056000600860009054906101000a900473ffffffffffffffffffffffffffffffffffffffff1673ffffffffffffffffffffffffffffffffffffffff1673ffffffffffffffffffffffffffffffffffffffff16815260200190815260200160002060000160049054906101000a900460070b90506000600760009054906101000a900473ffffffffffffffffffffffffffffffffffffffff1690505b600073ffffffffffffffffffffffffffffffffffffffff168173ffffffffffffffffffffffffffffffffffffffff1614158015613f495750600060056000600860009054906101000a900473ffffffffffffffffffffffffffffffffffffffff1673ffffffffffffffffffffffffffffffffffffffff1673ffffffffffffffffffffffffffffffffffffffff16815260200190815260200160002060000160009054906101000a900460030b60030b135b8015613fa757506000600660008373ffffffffffffffffffffffffffffffffffffffff1673ffffffffffffffffffffffffffffffffffffffff16815260200190815260200160002060000160009054906101000a900460030b60030b135b80156140085750600660008273ffffffffffffffffffffffffffffffffffffffff1673ffffffffffffffffffffffffffffffffffffffff16815260200190815260200160002060000160049054906101000a900460070b60070b8260070b12155b1561454e576000600660008373ffffffffffffffffffffffffffffffffffffffff1673ffffffffffffffffffffffffffffffffffffffff16815260200190815260200160002060000160009054906101000a900460030b90508060030b60056000600860009054906101000a900473ffffffffffffffffffffffffffffffffffffffff1673ffffffffffffffffffffffffffffffffffffffff1673ffffffffffffffffffffffffffffffffffffffff16815260200190815260200160002060000160009054906101000a900460030b60030b12156141555760056000600860009054906101000a900473ffffffffffffffffffffffffffffffffffffffff1673ffffffffffffffffffffffffffffffffffffffff1673ffffffffffffffffffffffffffffffffffffffff16815260200190815260200160002060000160009054906101000a900460030b90505b80600460008673ffffffffffffffffffffffffffffffffffffffff1673ffffffffffffffffffffffffffffffffffffffff16815260200190815260200160002060000160008282829054906101000a900460030b0192506101000a81548163ffffffff021916908360030b63ffffffff1602179055508260070b8160030b02600460008673ffffffffffffffffffffffffffffffffffffffff1673ffffffffffffffffffffffffffffffffffffffff16815260200190815260200160002060000160048282829054906101000a9004600f0b0392506101000a8154816fffffffffffffffffffffffffffffffff0219169083600f0b6fffffffffffffffffffffffffffffffff16021790555080600460008473ffffffffffffffffffffffffffffffffffffffff1673ffffffffffffffffffffffffffffffffffffffff16815260200190815260200160002060000160008282829054906101000a900460030b0392506101000a81548163ffffffff021916908360030b63ffffffff1602179055508260070b8160030b02600460008473ffffffffffffffffffffffffffffffffffffffff1673ffffffffffffffffffffffffffffffffffffffff16815260200190815260200160002060000160048282829054906101000a9004600f0b0192506101000a8154816fffffffffffffffffffffffffffffffff0219169083600f0b6fffffffffffffffffffffffffffffffff1602179055508060056000600860009054906101000a900473ffffffffffffffffffffffffffffffffffffffff1673ffffffffffffffffffffffffffffffffffffffff1673ffffffffffffffffffffffffffffffffffffffff16815260200190815260200160002060000160008282829054906101000a900460030b0392506101000a81548163ffffffff021916908360030b63ffffffff16021790555080600660008473ffffffffffffffffffffffffffffffffffffffff1673ffffffffffffffffffffffffffffffffffffffff16815260200190815260200160002060000160008282829054906101000a900460030b0392506101000a81548163ffffffff021916908360030b63ffffffff1602179055506144878483838661490c565b6000600660008473ffffffffffffffffffffffffffffffffffffffff1673ffffffffffffffffffffffffffffffffffffffff16815260200190815260200160002060000160009054906101000a900460030b60030b141561454857600660008373ffffffffffffffffffffffffffffffffffffffff1673ffffffffffffffffffffffffffffffffffffffff168152602001908152602001600020600001600c9054906101000a900473ffffffffffffffffffffffffffffffffffffffff1691505b50613e98565b6145566149c5565b61455e614c6e565b50505b50565b600080600760009054906101000a900473ffffffffffffffffffffffffffffffffffffffff1690505b600073ffffffffffffffffffffffffffffffffffffffff168173ffffffffffffffffffffffffffffffffffffffff161415801561465857508273ffffffffffffffffffffffffffffffffffffffff16600660008373ffffffffffffffffffffffffffffffffffffffff1673ffffffffffffffffffffffffffffffffffffffff168152602001908152602001600020600001600c9054906101000a900473ffffffffffffffffffffffffffffffffffffffff1673ffffffffffffffffffffffffffffffffffffffff1614155b156146c757600660008273ffffffffffffffffffffffffffffffffffffffff1673ffffffffffffffffffffffffffffffffffffffff168152602001908152602001600020600001600c9054906101000a900473ffffffffffffffffffffffffffffffffffffffff16905061458d565b8273ffffffffffffffffffffffffffffffffffffffff16600660008373ffffffffffffffffffffffffffffffffffffffff1673ffffffffffffffffffffffffffffffffffffffff168152602001908152602001600020600001600c9054906101000a900473ffffffffffffffffffffffffffffffffffffffff1673ffffffffffffffffffffffffffffffffffffffff161415614766578091505061476c565b60009150505b919050565b600080600090506000600760009054906101000a900473ffffffffffffffffffffffffffffffffffffffff1690505b600073ffffffffffffffffffffffffffffffffffffffff168173ffffffffffffffffffffffffffffffffffffffff161415801561482f57506000600660008373ffffffffffffffffffffffffffffffffffffffff1673ffffffffffffffffffffffffffffffffffffffff16815260200190815260200160002060000160009054906101000a900460030b60030b135b80156148905750600660008273ffffffffffffffffffffffffffffffffffffffff1673ffffffffffffffffffffffffffffffffffffffff16815260200190815260200160002060000160049054906101000a900460070b60070b8460070b12155b1561490257809150600660008373ffffffffffffffffffffffffffffffffffffffff1673ffffffffffffffffffffffffffffffffffffffff168152602001908152602001600020600001600c9054906101000a900473ffffffffffffffffffffffffffffffffffffffff1690506147a0565b8192505050919050565b7f8138ca185870ad93189d1777b49ee8e5c48191504c8d40a50d2e69e0cb7b372584848484604051808573ffffffffffffffffffffffffffffffffffffffff1673ffffffffffffffffffffffffffffffffffffffff1681526020018473ffffffffffffffffffffffffffffffffffffffff1673ffffffffffffffffffffffffffffffffffffffff1681526020018360030b60030b81526020018260070b60070b815260200194505050505060405180910390a150505050565b60006149cf6152bf565b90506000600860009054906101000a900473ffffffffffffffffffffffffffffffffffffffff1690505b600073ffffffffffffffffffffffffffffffffffffffff168173ffffffffffffffffffffffffffffffffffffffff1614158015614a8857506000600560008373ffffffffffffffffffffffffffffffffffffffff1673ffffffffffffffffffffffffffffffffffffffff16815260200190815260200160002060000160009054906101000a900460030b60030b145b15614c6a576000600560008373ffffffffffffffffffffffffffffffffffffffff1673ffffffffffffffffffffffffffffffffffffffff16815260200190815260200160002060000160046101000a81548167ffffffffffffffff021916908360070b67ffffffffffffffff16021790555080600560008473ffffffffffffffffffffffffffffffffffffffff1673ffffffffffffffffffffffffffffffffffffffff168152602001908152602001600020600001600c6101000a81548173ffffffffffffffffffffffffffffffffffffffff021916908373ffffffffffffffffffffffffffffffffffffffff1602179055508091506000600560008473ffffffffffffffffffffffffffffffffffffffff1673ffffffffffffffffffffffffffffffffffffffff168152602001908152602001600020600001600c6101000a81548173ffffffffffffffffffffffffffffffffffffffff021916908373ffffffffffffffffffffffffffffffffffffffff160217905550600560008273ffffffffffffffffffffffffffffffffffffffff1673ffffffffffffffffffffffffffffffffffffffff168152602001908152602001600020600001600c9054906101000a900473ffffffffffffffffffffffffffffffffffffffff1690506149f9565b5050565b6000614c786153f1565b90506000600760009054906101000a900473ffffffffffffffffffffffffffffffffffffffff1690505b600073ffffffffffffffffffffffffffffffffffffffff168173ffffffffffffffffffffffffffffffffffffffff1614158015614d3157506000600660008373ffffffffffffffffffffffffffffffffffffffff1673ffffffffffffffffffffffffffffffffffffffff16815260200190815260200160002060000160009054906101000a900460030b60030b145b15614f13576000600660008373ffffffffffffffffffffffffffffffffffffffff1673ffffffffffffffffffffffffffffffffffffffff16815260200190815260200160002060000160046101000a81548167ffffffffffffffff021916908360070b67ffffffffffffffff16021790555080600660008473ffffffffffffffffffffffffffffffffffffffff1673ffffffffffffffffffffffffffffffffffffffff168152602001908152602001600020600001600c6101000a81548173ffffffffffffffffffffffffffffffffffffffff021916908373ffffffffffffffffffffffffffffffffffffffff1602179055508091506000600660008473ffffffffffffffffffffffffffffffffffffffff1673ffffffffffffffffffffffffffffffffffffffff168152602001908152602001600020600001600c6101000a81548173ffffffffffffffffffffffffffffffffffffffff021916908373ffffffffffffffffffffffffffffffffffffffff160217905550600660008273ffffffffffffffffffffffffffffffffffffffff1673ffffffffffffffffffffffffffffffffffffffff168152602001908152602001600020600001600c9054906101000a900473ffffffffffffffffffffffffffffffffffffffff169050614ca2565b5050565b600080600860009054906101000a900473ffffffffffffffffffffffffffffffffffffffff1690505b600073ffffffffffffffffffffffffffffffffffffffff168173ffffffffffffffffffffffffffffffffffffffff161415801561500b57508273ffffffffffffffffffffffffffffffffffffffff16600560008373ffffffffffffffffffffffffffffffffffffffff1673ffffffffffffffffffffffffffffffffffffffff168152602001908152602001600020600001600c9054906101000a900473ffffffffffffffffffffffffffffffffffffffff1673ffffffffffffffffffffffffffffffffffffffff1614155b1561507a57600560008273ffffffffffffffffffffffffffffffffffffffff1673ffffffffffffffffffffffffffffffffffffffff168152602001908152602001600020600001600c9054906101000a900473ffffffffffffffffffffffffffffffffffffffff169050614f40565b8273ffffffffffffffffffffffffffffffffffffffff16600560008373ffffffffffffffffffffffffffffffffffffffff1673ffffffffffffffffffffffffffffffffffffffff168152602001908152602001600020600001600c9054906101000a900473ffffffffffffffffffffffffffffffffffffffff1673ffffffffffffffffffffffffffffffffffffffff161415615119578091505061511f565b60009150505b919050565b600080600090506000600860009054906101000a900473ffffffffffffffffffffffffffffffffffffffff1690505b600073ffffffffffffffffffffffffffffffffffffffff168173ffffffffffffffffffffffffffffffffffffffff16141580156151e257506000600560008373ffffffffffffffffffffffffffffffffffffffff1673ffffffffffffffffffffffffffffffffffffffff16815260200190815260200160002060000160009054906101000a900460030b60030b135b80156152435750600560008273ffffffffffffffffffffffffffffffffffffffff1673ffffffffffffffffffffffffffffffffffffffff16815260200190815260200160002060000160049054906101000a900460070b60070b8460070b13155b156152b557809150600560008373ffffffffffffffffffffffffffffffffffffffff1673ffffffffffffffffffffffffffffffffffffffff168152602001908152602001600020600001600c9054906101000a900473ffffffffffffffffffffffffffffffffffffffff169050615153565b8192505050919050565b600080600860009054906101000a900473ffffffffffffffffffffffffffffffffffffffff1690505b600073ffffffffffffffffffffffffffffffffffffffff16600560008373ffffffffffffffffffffffffffffffffffffffff1673ffffffffffffffffffffffffffffffffffffffff168152602001908152602001600020600001600c9054906101000a900473ffffffffffffffffffffffffffffffffffffffff1673ffffffffffffffffffffffffffffffffffffffff161415156153ea57600560008273ffffffffffffffffffffffffffffffffffffffff1673ffffffffffffffffffffffffffffffffffffffff168152602001908152602001600020600001600c9054906101000a900473ffffffffffffffffffffffffffffffffffffffff1690506152e8565b8091505090565b600080600760009054906101000a900473ffffffffffffffffffffffffffffffffffffffff1690505b600073ffffffffffffffffffffffffffffffffffffffff16600660008373ffffffffffffffffffffffffffffffffffffffff1673ffffffffffffffffffffffffffffffffffffffff168152602001908152602001600020600001600c9054906101000a900473ffffffffffffffffffffffffffffffffffffffff1673ffffffffffffffffffffffffffffffffffffffff1614151561551c57600660008273ffffffffffffffffffffffffffffffffffffffff1673ffffffffffffffffffffffffffffffffffffffff168152602001908152602001600020600001600c9054906101000a900473ffffffffffffffffffffffffffffffffffffffff16905061541a565b809150509056fea165627a7a72305820bf2d3499b2beaad10cf3a00074541814032d8de22600dedc4625b5a92ea2ce220029",
  "source": "\n// File: contracts/Derivative.sol\n\n/**\n*  Copyright 2019 Steffen Lehmann\n* Deployment not permitted except to local test networks\n**/\n\npragma solidity ^0.5.0;\n\ninterface AccountProxy {\n    function getTotalAvailable() external view returns (uint256);\n    function isInsufficientBalance() external view returns (bool);\n    function closeOut() external;\n    function settle(address destination, int128 amount) external;\n}\n\n/**\n * @title Derivative\n * @dev Base Class\n * This is the base class for all derivative contracts\n * and should not be used directly\n */\ncontract Derivative {\n    address payable public owner;\n    address[] private accounts;\n    mapping(address => bool) public verified;\n    mapping(address => uint) public fees;\n    mapping(address => Position) internal positions;\n    mapping(address => Order) internal bids;\n    mapping(address => Order) internal asks;\n    address private lowestAsk;\n    address private highestBid;\n    uint64 public fee;\n    uint64 public expirationTime; // Expiration DateTime code (UTC)\n    uint64 public valuationTime; // Last valuation DateTime code (UTC)\n    uint8 public initialMarginRate;\n    uint8 public variationMarginRate;\n    int64 public price;\n               \n    struct Position {\n        int32 notional; // Units of the undelying e.g. cents\n        int128 amount;    // Wei\n    }\n\n    struct Order {\n        int32 notional; // Units of the underlying e.g. cents    \n        int64 price;    // Wei per one unit of the underlying (Wei / cent)\n        address next;\n    }\n\n    /**\n     * @dev Constructor should only be called from unit tests\n     */\n    constructor() public {\n        owner = msg.sender;\n    }\n\n    modifier onlyOwner() {\n        require(msg.sender == owner, \"Not authorized\");\n        _;\n    }\n\n    modifier canTrade() {\n        require(!isExpired() && verified[msg.sender] && fees[msg.sender] >= fee, \"Not elegible to trade\");\n        _;\n    }\n\n    /**************************************\n    * Private and internal Methods\n    **************************************/\n\n    function getPrecedingBid(address account) private view returns (address) {\n        address previous = highestBid;\n        while (previous != address(0) && bids[previous].next != account) {\n            previous = bids[previous].next;\n        }\n        if (bids[previous].next == account)\n            return previous;\n        return address(0);\n    }\n\n    function getPrecedingAsk(address account) private view returns (address) {\n        address previous = lowestAsk;\n        while (previous != address(0) && asks[previous].next != account) {\n            previous = asks[previous].next;\n        }\n        if (asks[previous].next == account)\n            return previous;\n        return address(0);\n    }\n\n    function getNextHigherBid(int64 bidPrice) private view returns (address) {\n        address previous = address(0);\n        address next = highestBid;\n        while (next != address(0) && bids[next].notional > 0 && bidPrice <= bids[next].price) {\n            previous = next;\n            next = bids[previous].next;\n        }\n        return previous;\n    }\n\n    function getNextLowerAsk(int64 askPrice) private view returns (address) {\n        address previous = address(0);\n        address next = lowestAsk;\n        while (next != address(0) && asks[next].notional > 0 && askPrice >= asks[next].price) {\n            previous = next;\n            next = asks[previous].next;\n        }\n        return previous;\n    }\n\n    /**\n    * @dev if new order reduces collat requirement then allow even if account balance is insufficient\n    */\n    function preClear(address account, int128 requirement) private view returns (bool) {\n        // Clear if new trade reduces requirement (or does not change it)\n        int128 currentRequirement = getCollateralRequirement(positions[account].notional, positions[account].amount, bids[account].notional, bids[account].price, asks[account].notional, asks[account].price);\n        if (requirement <= currentRequirement)\n            return true;\n\n        AccountProxy proxy = AccountProxy(account);\n        uint256 availableBalance = proxy.getTotalAvailable();\n        // Difference guaranteed to be positive\n        return uint256(requirement - currentRequirement) <= availableBalance;\n    }\n\n    function preClearBid(address account, int32 notional, int64 bidPrice) private view returns (bool) {\n        return preClear(account, getCollateralRequirement(positions[account].notional, positions[account].amount, notional, bidPrice, asks[account].notional, asks[account].price));\n    }\n\n    function preClearAsk(address account, int32 notional, int64 askPrice) private view returns (bool) {\n        return preClear(account, getCollateralRequirement(positions[account].notional, positions[account].amount, bids[account].notional, bids[account].price, notional, askPrice));\n    }\n\n    function updateBid(address account, int32 notional, int64 bidPrice) private {\n        Order storage bid = bids[account];\n        if (notional == 0 || bidPrice == 0) {\n            bid.notional = 0;\n            bid.price = 0;\n        } else {\n            bid.notional = notional;\n            bid.price = bidPrice;\n        }\n        if (highestBid == account)\n            highestBid = bid.next;\n        address previous = getPrecedingBid(account);\n        if (previous != address(0))\n            bids[previous].next = bid.next;\n        previous = getNextHigherBid(bid.price);\n        if (previous == address(0)) {\n            bid.next = highestBid;\n            highestBid = account;\n        } else {\n            bid.next = bids[previous].next;\n            bids[previous].next = account;\n        }\n    }\n\n    function updateAsk(address account, int32 notional, int64 askPrice) private {\n        Order storage ask = asks[account];\n        if (notional == 0 || askPrice == 0) {\n            ask.notional = 0;\n            ask.price = 0;\n        } else {\n            ask.notional = notional;\n            ask.price = askPrice;\n        }\n        if (lowestAsk == account)\n            lowestAsk = ask.next;\n        address previous = getPrecedingAsk(account);\n        if (previous != address(0))\n            asks[previous].next = ask.next;\n        previous = getNextLowerAsk(ask.price);\n        if (previous == address(0)) {\n            ask.next = lowestAsk;\n            lowestAsk = account;\n        } else {\n            ask.next = asks[previous].next;\n            asks[previous].next = account;\n        }\n    }\n\n    function clearLong(address account) private {\n        if (highestBid == account) {\n            int64 bidPrice = bids[highestBid].price;\n            address current = lowestAsk;\n            while (current != address(0) && bids[highestBid].notional > 0 && asks[current].notional > 0 && bidPrice >= asks[current].price) {\n                int32 notional = asks[current].notional;\n                if (bids[highestBid].notional < notional)\n                    notional = bids[highestBid].notional;\n                positions[account].notional += notional;\n                positions[account].amount -= int128(notional) * int128(bidPrice);\n                positions[current].notional -= notional;\n                positions[current].amount += int128(notional) * int128(bidPrice);\n                bids[highestBid].notional -= notional;\n                asks[current].notional -= notional;\n                clearTrade(account, current, notional, bidPrice);\n                if (asks[current].notional == 0)\n                    current = asks[current].next;    \n            }\n            removeClearedBids();\n            removeClearedAsks();\n        }\n    }\n\n    function clearShort(address account) private {\n        if (lowestAsk == account) {\n            int64 askPrice = asks[lowestAsk].price;\n            address current = highestBid;\n            while (current != address(0) && asks[lowestAsk].notional > 0 && bids[current].notional > 0 && askPrice <= bids[current].price) {\n                int32 notional = bids[current].notional;\n                if (asks[lowestAsk].notional < notional)\n                    notional = asks[lowestAsk].notional;\n                positions[account].notional -= notional;\n                positions[account].amount += int128(notional) * int128(askPrice);\n                positions[current].notional += notional;\n                positions[current].amount -= int128(notional) * int128(askPrice);\n                asks[lowestAsk].notional -= notional;\n                bids[current].notional -= notional;\n                clearTrade(current, account, notional, askPrice);\n                if (bids[current].notional == 0)\n                    current = bids[current].next;\n            }\n            removeClearedBids();\n            removeClearedAsks();\n        }\n    }\n\n    function clearTrade(address longAccount, address shortAccount, int32 notional, int64 xp) private {\n        emit TradeCleared(longAccount, shortAccount, notional, xp);\n    }\n\n    function getLastBid() private view returns (address) {\n        address current = highestBid;\n        while (bids[current].next != address(0)) {\n            current = bids[current].next;\n        }\n        return current;\n    }\n\n    function getLastAsk() private view returns (address) {\n        address current = lowestAsk;\n        while (asks[current].next != address(0)) {\n            current = asks[current].next;\n        }\n        return current;\n    }\n\n    function removeClearedBids() private {\n        address lastBid = getLastBid();\n        address current = highestBid;\n        while (current != address(0) && bids[current].notional == 0) {\n            bids[current].price = 0;\n            bids[lastBid].next = current;\n            lastBid = current;\n            bids[lastBid].next = address(0);\n            current = bids[current].next;\n        }\n    }\n\n    function removeClearedAsks() private {\n        address lastAsk = getLastAsk();\n        address current = lowestAsk;\n        while (current != address(0) && asks[current].notional == 0) {\n            asks[current].price = 0;\n            asks[lastAsk].next = current;\n            lastAsk = current;\n            asks[lastAsk].next = address(0);\n            current = asks[current].next;\n        }\n    }\n\n    /**************************************\n    * Events\n    **************************************/\n    event FeePaid(address account, uint256 amount);\n    event OrderPosted(address account, int32 notional, int64 xp);\n    event TradeCleared(address longAccount, address shortAccount, int32 notional, int64 xp);\n\n    /*****************************************************\n    * Public Methods - Called extarnally and from contract\n    *****************************************************/\n\n    function isExpired() public view returns (bool) {\n        return valuationTime >= expirationTime;\n    }\n\n    function isSettled() public view returns (bool) {\n        for (uint i = 0; i < accounts.length; i++) {\n            Position storage pos = positions[accounts[i]];\n            if (pos.notional != 0 || pos.amount != 0)\n                return false;\n        }\n        return true;\n    }\n\n    /*************************************\n    * External Methods - Non Restricted\n    **************************************/\n\n    function getAccounts() external view returns (address[] memory) { return accounts; }\n\n    function isInUse(address account) external view returns (bool) {\n        if (!verified[account] || (isExpired() && positions[account].amount == 0))\n            return false;\n        return true;\n    }\n\n    function getPosition(address account) external view returns (int32, int128) {\n        return (positions[account].notional, positions[account].amount);\n    } \n\n    function getBid(address account) external view returns (int32, int64) {\n        return (bids[account].notional, bids[account].price);\n    }  \n\n    function getAsk(address account) external view returns (int32, int64) {\n        return (asks[account].notional, asks[account].price);\n    }\n\n    function getHighEstimate() public view returns (int64) {\n        return price * (100 + variationMarginRate) / 100;\n    }\n\n    function getLowEstimate() public view returns (int64) {\n        return price * (100 - variationMarginRate) / 100;\n    }\n\n    function getMarkToMarket(int32 notional, int128 amount) external view returns (int128) {\n        return int128(notional) * price + amount;\n    }\n\n    function getVariationMargin(int32 notional, int128 amount) public view returns (int128) {\n        if (notional > 0)\n            return -(int128(notional) * getLowEstimate() + amount);\n        return -(int128(notional) * getHighEstimate() + amount);\n    }\n\n    function getInitialMargin(int32 notional, int128 amount) public view returns (int128) {\n        if (notional == 0)\n            return 0;\n        if (amount > 0)\n            return amount * initialMarginRate / 100;\n        else\n            return -amount * initialMarginRate / 100;\n    }\n\n    function getMarginRequirement(int32 notional, int128 amount) public view returns (int128) {\n        if (notional > 0 && amount >= 0) // Long position with no downside risk -> No margin requirement\n            return 0;\n\n        if (notional == 0)   // No exposure\n            if (amount >= 0) // Locked in profit -> No margin requirement\n                return 0;\n            else\n                return -amount; // Locked in loss\n        \n        int128 requirement = getInitialMargin(notional, amount) + getVariationMargin(notional, amount);\n        if (requirement < 0)    // Requirement cannot be negative \n            requirement = 0;\n\n        if (notional > 0 && requirement > -amount)  // Long position with negative amount -> Downside cannot exceed amount\n            return -amount;\n\n        return requirement;  // All other cases\n    }\n\n    function getCollateralRequirement(int32 positionNotional, int128 positionValue, int32 bidNotional, int64 bidPrice, int32 askNotional, int64 askPrice) public view returns (int128) {\n        int128 posCol = getMarginRequirement(positionNotional, positionValue);\n        int128 bidCol = getMarginRequirement(positionNotional + bidNotional, positionValue - int128(bidNotional) * bidPrice);\n        int128 askCol = getMarginRequirement(positionNotional - askNotional, positionValue + int128(askNotional) * askPrice);\n        int128 dbid = bidCol - posCol;\n        int128 dask = askCol - posCol;\n        int128 result = posCol;\n        if (dbid > 0)\n            result += dbid;\n        if (dask > 0)\n            result += dask;\n        return result;\n    }\n\n    /************************************************\n    * External API - Restricted to Accounts\n    *************************************************/\n\n    function goLong(int32 notional, int64 bidPrice) external canTrade {\n        require(notional >= 0 && price >= 0, \"Notional and Price must be non-negative\");\n        require(preClearBid(msg.sender, notional, bidPrice), \"Insufficient collateral\");\n        updateBid(msg.sender, notional, bidPrice);\n        emit OrderPosted(msg.sender, notional, bidPrice);\n        clearLong(msg.sender);\n    }\n\n    function goShort(int32 notional, int64 askPrice) external canTrade {\n        require(notional >= 0 && price >= 0, \"Notional and Price must be non-negative\");\n        require(preClearAsk(msg.sender, notional, askPrice), \"Insufficient collateral\");\n        updateAsk(msg.sender, notional, askPrice);\n        emit OrderPosted(msg.sender, -notional, askPrice);\n        clearShort(msg.sender);\n    }\n\n    function transferNotional(address recipient, int32 notional) external canTrade {\n        require(verified[recipient] && fees[recipient] >= fee, \"Recipient not registered\");\n        require(notional > 0, \"Notional must be greater zero\");\n        require(preClear(msg.sender, getCollateralRequirement(positions[msg.sender].notional - notional, positions[msg.sender].amount, bids[msg.sender].notional, bids[msg.sender].price, asks[msg.sender].notional, asks[msg.sender].price)), \"Insufficient collateral\");\n        positions[msg.sender].notional -= notional;\n        positions[recipient].notional += notional;\n    }\n\n    /*****************************************************************\n    * External API - Restricted to Owner\n    *****************************************************************/\n\n    function setVerified(address account, bool isValid) public onlyOwner { verified[account] = isValid; }\n    \n    function addVerifiedAccount(address account) external onlyOwner {\n        for (uint i = 0; i < accounts.length; i++) {\n            if (accounts[i] == account) {\n                return;\n            }\n        }\n        accounts.push(account);\n        setVerified(account, true);\n    } \n    \n    function transferOwnership(address payable newOwner) external onlyOwner {\n        require(newOwner != address(0), \"Invalid address\");\n        owner = newOwner;\n    }\n\n    function destroy() external onlyOwner {\n        require(isExpired() && isSettled(), \"Contract in use\");\n        selfdestruct(owner);\n    }\n\n\n    /************************************************\n    * Fallback - Payable function reveive fee\n    *************************************************/\n\n    // sender will be added to accounts if not yet present by event handler\n    function payFee() payable external {\n        fees[msg.sender] += msg.value;\n        emit FeePaid(msg.sender, msg.value);\n    }\n}\n\n// File: contracts/ManagedForward.sol\n\n/**\n*  Copyright 2019 Steffen Lehmann\n* Deployment not permitted except to local test networks\n**/\n\npragma solidity ^0.5.0;\n\n\n/**\n * @title ManagedForward\n * @dev \n */\ncontract ManagedForward is Derivative {\n    mapping(address => uint8) public shortfall; // Number of consecutive margin calculations that left account in default\n    uint8 public defaultTrigger; // Number of consecutive shortfalls required to declare account in default (0 = default on first shortfall; 1 = default on second shortfall)\n       \n    /**\n    * @dev Constructor\n    */\n    constructor(\n        uint32 contractExpirationTime, \n        uint8 contractDefaultTrigger, \n        uint64 contractFee) public {\n\n        owner = msg.sender;\n        expirationTime = contractExpirationTime;\n        defaultTrigger = contractDefaultTrigger;\n        fee = contractFee;\n    }\n\n    function setDefaultTrigger(uint8 trigger) external onlyOwner { defaultTrigger = trigger; }\n\n    function setFee(uint64 amount) external onlyOwner { fee = amount; }\n\n    function setInitialMarginRate(uint8 rate) external onlyOwner { initialMarginRate = rate; }\n\n    function setVariationMarginRate(uint8 rate) external onlyOwner {variationMarginRate = rate; }\n\n    function markToMarket(uint32 currentTime, int64 currentPrice) external onlyOwner {\n        valuationTime = currentTime;\n        price = currentPrice;\n    }\n\n    function marginCheck(address account) external onlyOwner {\n        AccountProxy proxy = AccountProxy(account);\n        if (proxy.isInsufficientBalance())\n            shortfall[account] += 1;\n        else\n            shortfall[account] = 0;\n    }\n\n    function isInDefault(address account) external view returns (bool) {\n        return shortfall[account] >= defaultTrigger;\n    }\n\n    /**\n    * Close account that is in default\n    * rules enforced by account contract\n    */\n    function closeOut(address account) external onlyOwner {\n        AccountProxy proxy = AccountProxy(account);\n        proxy.closeOut();\n    }\n\n    /**\n    * Close position at current price\n    * after contract has expired\n    * and release excess collateral\n    */  \n    function closePosition(address account) external onlyOwner {\n        require(isExpired(), \"Contract still active\");\n        positions[account].amount += int128(positions[account].notional) * price;\n        positions[account].notional = 0;\n    }\n\n    /**\n    * out-of-the-money party pays in-the-money party\n    * release excess collateral\n    * rules enforced by account contract\n    */\n    function settle(address otmParty, address itmParty, int128 amountToSettle) external onlyOwner {\n        AccountProxy otmProxy = AccountProxy(otmParty);\n        otmProxy.settle(itmParty, amountToSettle);\n        positions[otmParty].amount += amountToSettle;\n        positions[itmParty].amount -= amountToSettle;\n    }\n   \n}\n",
  "sourcePath": "/Users/Steffen/Projects/ProDerivatives/public/EthereumContracts/contracts/ManagedForward.sol",
  "compiler": {
    "name": "solc",
    "version": "0.5.0+commit.1d4f565a.Emscripten.clang"
  },
  "schemaVersion": "3.0.1",
  "updatedAt": "2019-04-15T19:02:09.551Z",
  "devdoc": {
    "details": "Base Class This is the base class for all derivative contracts and should not be used directly",
    "methods": {
      "constructor": {
        "details": "Constructor should only be called from unit tests"
      }
    },
    "title": "Derivative"
  },
  "userdoc": {
    "methods": {
      "getAccounts()": {
        "notice": "*********************************** External Methods - Non Restricted*************************************"
      },
      "goLong(int32,int64)": {
        "notice": "********************************************** External API - Restricted to Accounts************************************************"
      },
      "isExpired()": {
        "notice": "*************************************************** Public Methods - Called extarnally and from contract****************************************************"
      },
      "payFee()": {
        "notice": "********************************************** Fallback - Payable function reveive fee************************************************"
      },
      "setVerified(address,bool)": {
        "notice": "*************************************************************** External API - Restricted to Owner****************************************************************"
      }
    }
  }
}