{
  "contractName": "Forward",
  "abi": [
    {
      "constant": true,
      "inputs": [],
      "name": "variationMarginRate",
      "outputs": [
        {
          "name": "",
          "type": "uint8"
        }
      ],
      "payable": false,
      "stateMutability": "view",
      "type": "function"
    },
    {
      "constant": true,
      "inputs": [
        {
          "name": "",
          "type": "address"
        }
      ],
      "name": "verified",
      "outputs": [
        {
          "name": "",
          "type": "bool"
        }
      ],
      "payable": false,
      "stateMutability": "view",
      "type": "function"
    },
    {
      "constant": true,
      "inputs": [
        {
          "name": "notional",
          "type": "int32"
        },
        {
          "name": "amount",
          "type": "int128"
        }
      ],
      "name": "getMarkToMarket",
      "outputs": [
        {
          "name": "",
          "type": "int128"
        }
      ],
      "payable": false,
      "stateMutability": "view",
      "type": "function"
    },
    {
      "constant": true,
      "inputs": [
        {
          "name": "account",
          "type": "address"
        }
      ],
      "name": "getPosition",
      "outputs": [
        {
          "name": "",
          "type": "int32"
        },
        {
          "name": "",
          "type": "int128"
        }
      ],
      "payable": false,
      "stateMutability": "view",
      "type": "function"
    },
    {
      "constant": false,
      "inputs": [],
      "name": "payFee",
      "outputs": [],
      "payable": true,
      "stateMutability": "payable",
      "type": "function"
    },
    {
      "constant": true,
      "inputs": [],
      "name": "isExpired",
      "outputs": [
        {
          "name": "",
          "type": "bool"
        }
      ],
      "payable": false,
      "stateMutability": "view",
      "type": "function"
    },
    {
      "constant": true,
      "inputs": [],
      "name": "isSettled",
      "outputs": [
        {
          "name": "",
          "type": "bool"
        }
      ],
      "payable": false,
      "stateMutability": "view",
      "type": "function"
    },
    {
      "constant": true,
      "inputs": [],
      "name": "valuationTime",
      "outputs": [
        {
          "name": "",
          "type": "uint64"
        }
      ],
      "payable": false,
      "stateMutability": "view",
      "type": "function"
    },
    {
      "constant": true,
      "inputs": [],
      "name": "initialMarginRate",
      "outputs": [
        {
          "name": "",
          "type": "uint8"
        }
      ],
      "payable": false,
      "stateMutability": "view",
      "type": "function"
    },
    {
      "constant": true,
      "inputs": [
        {
          "name": "notional",
          "type": "int32"
        },
        {
          "name": "amount",
          "type": "int128"
        }
      ],
      "name": "getInitialMargin",
      "outputs": [
        {
          "name": "",
          "type": "int128"
        }
      ],
      "payable": false,
      "stateMutability": "view",
      "type": "function"
    },
    {
      "constant": false,
      "inputs": [
        {
          "name": "notional",
          "type": "int32"
        },
        {
          "name": "askPrice",
          "type": "int64"
        }
      ],
      "name": "goShort",
      "outputs": [],
      "payable": false,
      "stateMutability": "nonpayable",
      "type": "function"
    },
    {
      "constant": false,
      "inputs": [
        {
          "name": "recipient",
          "type": "address"
        },
        {
          "name": "notional",
          "type": "int32"
        }
      ],
      "name": "transferNotional",
      "outputs": [],
      "payable": false,
      "stateMutability": "nonpayable",
      "type": "function"
    },
    {
      "constant": false,
      "inputs": [],
      "name": "destroy",
      "outputs": [],
      "payable": false,
      "stateMutability": "nonpayable",
      "type": "function"
    },
    {
      "constant": true,
      "inputs": [],
      "name": "getLowEstimate",
      "outputs": [
        {
          "name": "",
          "type": "int64"
        }
      ],
      "payable": false,
      "stateMutability": "view",
      "type": "function"
    },
    {
      "constant": true,
      "inputs": [],
      "name": "getAccounts",
      "outputs": [
        {
          "name": "",
          "type": "address[]"
        }
      ],
      "payable": false,
      "stateMutability": "view",
      "type": "function"
    },
    {
      "constant": true,
      "inputs": [],
      "name": "owner",
      "outputs": [
        {
          "name": "",
          "type": "address"
        }
      ],
      "payable": false,
      "stateMutability": "view",
      "type": "function"
    },
    {
      "constant": true,
      "inputs": [
        {
          "name": "positionNotional",
          "type": "int32"
        },
        {
          "name": "positionValue",
          "type": "int128"
        },
        {
          "name": "bidNotional",
          "type": "int32"
        },
        {
          "name": "bidPrice",
          "type": "int64"
        },
        {
          "name": "askNotional",
          "type": "int32"
        },
        {
          "name": "askPrice",
          "type": "int64"
        }
      ],
      "name": "getCollateralRequirement",
      "outputs": [
        {
          "name": "",
          "type": "int128"
        }
      ],
      "payable": false,
      "stateMutability": "view",
      "type": "function"
    },
    {
      "constant": false,
      "inputs": [
        {
          "name": "account",
          "type": "address"
        },
        {
          "name": "isValid",
          "type": "bool"
        }
      ],
      "name": "setVerified",
      "outputs": [],
      "payable": false,
      "stateMutability": "nonpayable",
      "type": "function"
    },
    {
      "constant": false,
      "inputs": [
        {
          "name": "account",
          "type": "address"
        }
      ],
      "name": "addVerifiedAccount",
      "outputs": [],
      "payable": false,
      "stateMutability": "nonpayable",
      "type": "function"
    },
    {
      "constant": true,
      "inputs": [],
      "name": "price",
      "outputs": [
        {
          "name": "",
          "type": "int64"
        }
      ],
      "payable": false,
      "stateMutability": "view",
      "type": "function"
    },
    {
      "constant": false,
      "inputs": [
        {
          "name": "notional",
          "type": "int32"
        },
        {
          "name": "bidPrice",
          "type": "int64"
        }
      ],
      "name": "goLong",
      "outputs": [],
      "payable": false,
      "stateMutability": "nonpayable",
      "type": "function"
    },
    {
      "constant": true,
      "inputs": [
        {
          "name": "notional",
          "type": "int32"
        },
        {
          "name": "amount",
          "type": "int128"
        }
      ],
      "name": "getVariationMargin",
      "outputs": [
        {
          "name": "",
          "type": "int128"
        }
      ],
      "payable": false,
      "stateMutability": "view",
      "type": "function"
    },
    {
      "constant": true,
      "inputs": [
        {
          "name": "notional",
          "type": "int32"
        },
        {
          "name": "amount",
          "type": "int128"
        }
      ],
      "name": "getMarginRequirement",
      "outputs": [
        {
          "name": "",
          "type": "int128"
        }
      ],
      "payable": false,
      "stateMutability": "view",
      "type": "function"
    },
    {
      "constant": true,
      "inputs": [
        {
          "name": "account",
          "type": "address"
        }
      ],
      "name": "getBid",
      "outputs": [
        {
          "name": "",
          "type": "int32"
        },
        {
          "name": "",
          "type": "int64"
        }
      ],
      "payable": false,
      "stateMutability": "view",
      "type": "function"
    },
    {
      "constant": true,
      "inputs": [
        {
          "name": "account",
          "type": "address"
        }
      ],
      "name": "isInUse",
      "outputs": [
        {
          "name": "",
          "type": "bool"
        }
      ],
      "payable": false,
      "stateMutability": "view",
      "type": "function"
    },
    {
      "constant": true,
      "inputs": [],
      "name": "getHighEstimate",
      "outputs": [
        {
          "name": "",
          "type": "int64"
        }
      ],
      "payable": false,
      "stateMutability": "view",
      "type": "function"
    },
    {
      "constant": true,
      "inputs": [],
      "name": "expirationTime",
      "outputs": [
        {
          "name": "",
          "type": "uint64"
        }
      ],
      "payable": false,
      "stateMutability": "view",
      "type": "function"
    },
    {
      "constant": true,
      "inputs": [],
      "name": "fee",
      "outputs": [
        {
          "name": "",
          "type": "uint64"
        }
      ],
      "payable": false,
      "stateMutability": "view",
      "type": "function"
    },
    {
      "constant": true,
      "inputs": [
        {
          "name": "account",
          "type": "address"
        }
      ],
      "name": "getAsk",
      "outputs": [
        {
          "name": "",
          "type": "int32"
        },
        {
          "name": "",
          "type": "int64"
        }
      ],
      "payable": false,
      "stateMutability": "view",
      "type": "function"
    },
    {
      "constant": false,
      "inputs": [
        {
          "name": "newOwner",
          "type": "address"
        }
      ],
      "name": "transferOwnership",
      "outputs": [],
      "payable": false,
      "stateMutability": "nonpayable",
      "type": "function"
    },
    {
      "constant": true,
      "inputs": [
        {
          "name": "",
          "type": "address"
        }
      ],
      "name": "fees",
      "outputs": [
        {
          "name": "",
          "type": "uint256"
        }
      ],
      "payable": false,
      "stateMutability": "view",
      "type": "function"
    },
    {
      "inputs": [
        {
          "name": "contractExpirationTime",
          "type": "uint32"
        },
        {
          "name": "contractFee",
          "type": "uint64"
        },
        {
          "name": "contractInitialMarginRate",
          "type": "uint8"
        },
        {
          "name": "contractVariationMarginRate",
          "type": "uint8"
        }
      ],
      "payable": false,
      "stateMutability": "nonpayable",
      "type": "constructor"
    },
    {
      "anonymous": false,
      "inputs": [
        {
          "indexed": false,
          "name": "account",
          "type": "address"
        },
        {
          "indexed": false,
          "name": "amount",
          "type": "uint256"
        }
      ],
      "name": "FeePaid",
      "type": "event"
    },
    {
      "anonymous": false,
      "inputs": [
        {
          "indexed": false,
          "name": "account",
          "type": "address"
        },
        {
          "indexed": false,
          "name": "notional",
          "type": "int32"
        },
        {
          "indexed": false,
          "name": "xp",
          "type": "int64"
        }
      ],
      "name": "OrderPosted",
      "type": "event"
    },
    {
      "anonymous": false,
      "inputs": [
        {
          "indexed": false,
          "name": "longAccount",
          "type": "address"
        },
        {
          "indexed": false,
          "name": "shortAccount",
          "type": "address"
        },
        {
          "indexed": false,
          "name": "notional",
          "type": "int32"
        },
        {
          "indexed": false,
          "name": "xp",
          "type": "int64"
        }
      ],
      "name": "TradeCleared",
      "type": "event"
    },
    {
      "constant": true,
      "inputs": [
        {
          "name": "account",
          "type": "address"
        }
      ],
      "name": "isInDefault",
      "outputs": [
        {
          "name": "",
          "type": "bool"
        }
      ],
      "payable": false,
      "stateMutability": "view",
      "type": "function"
    },
    {
      "constant": false,
      "inputs": [
        {
          "name": "account",
          "type": "address"
        }
      ],
      "name": "closeOut",
      "outputs": [],
      "payable": false,
      "stateMutability": "nonpayable",
      "type": "function"
    },
    {
      "constant": false,
      "inputs": [
        {
          "name": "account",
          "type": "address"
        },
        {
          "name": "settlementPrice",
          "type": "int64"
        },
        {
          "name": "v",
          "type": "uint8"
        },
        {
          "name": "r",
          "type": "bytes32"
        },
        {
          "name": "s",
          "type": "bytes32"
        }
      ],
      "name": "closePosition",
      "outputs": [],
      "payable": false,
      "stateMutability": "nonpayable",
      "type": "function"
    },
    {
      "constant": false,
      "inputs": [
        {
          "name": "otmParty",
          "type": "address"
        },
        {
          "name": "itmParty",
          "type": "address"
        },
        {
          "name": "amountToSettle",
          "type": "int128"
        }
      ],
      "name": "settle",
      "outputs": [],
      "payable": false,
      "stateMutability": "nonpayable",
      "type": "function"
    }
  ],
  "bytecode": "0x60806040523480156200001157600080fd5b50604051608080620060d5833981018060405260808110156200003357600080fd5b8101908080519060200190929190805190602001909291908051906020019092919080519060200190929190505050336000806101000a81548173ffffffffffffffffffffffffffffffffffffffff021916908373ffffffffffffffffffffffffffffffffffffffff160217905550336000806101000a81548173ffffffffffffffffffffffffffffffffffffffff021916908373ffffffffffffffffffffffffffffffffffffffff1602179055508363ffffffff16600960006101000a81548167ffffffffffffffff021916908367ffffffffffffffff16021790555082600860146101000a81548167ffffffffffffffff021916908367ffffffffffffffff16021790555081600960106101000a81548160ff021916908360ff16021790555080600960116101000a81548160ff021916908360ff16021790555050505050615f5180620001846000396000f3fe6080604052600436106101b7576000357c0100000000000000000000000000000000000000000000000000000000900463ffffffff16806304ff83b5146101bc5780630db065f4146101ed578063151235551461025657806316c19739146102bb57806329610252146103335780632f13b60c1461033d5780633270bb5b1461036c578063330c6fff1461039b57806346783030146103da5780635323fa75146104585780635c5793b81461048957806360274213146104ee578063701decff1461055757806370329a71146105a25780637f01020b1461062157806383197ef01461067f578063892f3de9146106965780638a48ac03146106c75780638da5cb5b146107335780639c1ae08f1461078a5780639cf5c613146108235780639d5ab14614610880578063a035b1fe146108d1578063aa0a958f14610902578063b10ff68d1461094d578063b2eef697146109b2578063c8b342ab14610a17578063ca472fdd14610a8f578063d1770fcc14610af8578063da284dcc14610b29578063ddca3f4314610b68578063de129f4e14610ba7578063f2d8e02d14610c1f578063f2fde38b14610c70578063faaebd2114610cc1575b600080fd5b3480156101c857600080fd5b506101d1610d26565b604051808260ff1660ff16815260200191505060405180910390f35b3480156101f957600080fd5b5061023c6004803603602081101561021057600080fd5b81019080803573ffffffffffffffffffffffffffffffffffffffff169060200190929190505050610d39565b604051808215151515815260200191505060405180910390f35b34801561026257600080fd5b5061029f6004803603604081101561027957600080fd5b81019080803560030b90602001909291908035600f0b9060200190929190505050610d59565b6040518082600f0b600f0b815260200191505060405180910390f35b3480156102c757600080fd5b5061030a600480360360208110156102de57600080fd5b81019080803573ffffffffffffffffffffffffffffffffffffffff169060200190929190505050610d7d565b604051808360030b60030b815260200182600f0b600f0b81526020019250505060405180910390f35b61033b610e29565b005b34801561034957600080fd5b50610352610ee3565b604051808215151515815260200191505060405180910390f35b34801561037857600080fd5b50610381610f2e565b604051808215151515815260200191505060405180910390f35b3480156103a757600080fd5b506103b061101f565b604051808267ffffffffffffffff1667ffffffffffffffff16815260200191505060405180910390f35b3480156103e657600080fd5b50610456600480360360608110156103fd57600080fd5b81019080803573ffffffffffffffffffffffffffffffffffffffff169060200190929190803573ffffffffffffffffffffffffffffffffffffffff1690602001909291908035600f0b9060200190929190505050611039565b005b34801561046457600080fd5b5061046d611387565b604051808260ff1660ff16815260200191505060405180910390f35b34801561049557600080fd5b506104d2600480360360408110156104ac57600080fd5b81019080803560030b90602001909291908035600f0b906020019092919050505061139a565b6040518082600f0b600f0b815260200191505060405180910390f35b3480156104fa57600080fd5b5061053d6004803603602081101561051157600080fd5b81019080803573ffffffffffffffffffffffffffffffffffffffff169060200190929190505050611417565b604051808215151515815260200191505060405180910390f35b34801561056357600080fd5b506105a06004803603604081101561057a57600080fd5b81019080803560030b9060200190929190803560070b90602001909291905050506114c2565b005b3480156105ae57600080fd5b5061061f600480360360a08110156105c557600080fd5b81019080803573ffffffffffffffffffffffffffffffffffffffff169060200190929190803560070b9060200190929190803560ff16906020019092919080359060200190929190803590602001909291905050506117d9565b005b34801561062d57600080fd5b5061067d6004803603604081101561064457600080fd5b81019080803573ffffffffffffffffffffffffffffffffffffffff169060200190929190803560030b9060200190929190505050611a08565b005b34801561068b57600080fd5b50610694612043565b005b3480156106a257600080fd5b506106ab6121cd565b604051808260070b60070b815260200191505060405180910390f35b3480156106d357600080fd5b506106dc61220a565b6040518080602001828103825283818151815260200191508051906020019060200280838360005b8381101561071f578082015181840152602081019050610704565b505050509050019250505060405180910390f35b34801561073f57600080fd5b50610748612298565b604051808273ffffffffffffffffffffffffffffffffffffffff1673ffffffffffffffffffffffffffffffffffffffff16815260200191505060405180910390f35b34801561079657600080fd5b50610807600480360360c08110156107ad57600080fd5b81019080803560030b90602001909291908035600f0b9060200190929190803560030b9060200190929190803560070b9060200190929190803560030b9060200190929190803560070b90602001909291905050506122bd565b6040518082600f0b600f0b815260200191505060405180910390f35b34801561082f57600080fd5b5061087e6004803603604081101561084657600080fd5b81019080803573ffffffffffffffffffffffffffffffffffffffff16906020019092919080351515906020019092919050505061234a565b005b34801561088c57600080fd5b506108cf600480360360208110156108a357600080fd5b81019080803573ffffffffffffffffffffffffffffffffffffffff169060200190929190505050612469565b005b3480156108dd57600080fd5b506108e6612636565b604051808260070b60070b815260200191505060405180910390f35b34801561090e57600080fd5b5061094b6004803603604081101561092557600080fd5b81019080803560030b9060200190929190803560070b9060200190929190505050612649565b005b34801561095957600080fd5b506109966004803603604081101561097057600080fd5b81019080803560030b90602001909291908035600f0b906020019092919050505061295d565b6040518082600f0b600f0b815260200191505060405180910390f35b3480156109be57600080fd5b506109fb600480360360408110156109d557600080fd5b81019080803560030b90602001909291908035600f0b90602001909291905050506129a4565b6040518082600f0b600f0b815260200191505060405180910390f35b348015610a2357600080fd5b50610a6660048036036020811015610a3a57600080fd5b81019080803573ffffffffffffffffffffffffffffffffffffffff169060200190929190505050612a58565b604051808360030b60030b81526020018260070b60070b81526020019250505060405180910390f35b348015610a9b57600080fd5b50610ade60048036036020811015610ab257600080fd5b81019080803573ffffffffffffffffffffffffffffffffffffffff169060200190929190505050612b04565b604051808215151515815260200191505060405180910390f35b348015610b0457600080fd5b50610b0d612bd9565b604051808260070b60070b815260200191505060405180910390f35b348015610b3557600080fd5b50610b3e612c16565b604051808267ffffffffffffffff1667ffffffffffffffff16815260200191505060405180910390f35b348015610b7457600080fd5b50610b7d612c30565b604051808267ffffffffffffffff1667ffffffffffffffff16815260200191505060405180910390f35b348015610bb357600080fd5b50610bf660048036036020811015610bca57600080fd5b81019080803573ffffffffffffffffffffffffffffffffffffffff169060200190929190505050612c4a565b604051808360030b60030b81526020018260070b60070b81526020019250505060405180910390f35b348015610c2b57600080fd5b50610c6e60048036036020811015610c4257600080fd5b81019080803573ffffffffffffffffffffffffffffffffffffffff169060200190929190505050612cf6565b005b348015610c7c57600080fd5b50610cbf60048036036020811015610c9357600080fd5b81019080803573ffffffffffffffffffffffffffffffffffffffff169060200190929190505050612d7b565b005b348015610ccd57600080fd5b50610d1060048036036020811015610ce457600080fd5b81019080803573ffffffffffffffffffffffffffffffffffffffff169060200190929190505050612f27565b6040518082815260200191505060405180910390f35b600960119054906101000a900460ff1681565b60026020528060005260406000206000915054906101000a900460ff1681565b600081600960129054906101000a900460070b60070b8460030b0201905092915050565b600080600460008473ffffffffffffffffffffffffffffffffffffffff1673ffffffffffffffffffffffffffffffffffffffff16815260200190815260200160002060000160009054906101000a900460030b600460008573ffffffffffffffffffffffffffffffffffffffff1673ffffffffffffffffffffffffffffffffffffffff16815260200190815260200160002060000160049054906101000a9004600f0b91509150915091565b34600360003373ffffffffffffffffffffffffffffffffffffffff1673ffffffffffffffffffffffffffffffffffffffff168152602001908152602001600020600082825401925050819055507f075a2720282fdf622141dae0b048ef90a21a7e57c134c76912d19d006b3b3f6f3334604051808373ffffffffffffffffffffffffffffffffffffffff1673ffffffffffffffffffffffffffffffffffffffff1681526020018281526020019250505060405180910390a1565b6000600960009054906101000a900467ffffffffffffffff1667ffffffffffffffff16600960089054906101000a900467ffffffffffffffff1667ffffffffffffffff161015905090565b600080600090505b60018054905081101561101657600060046000600184815481101515610f5857fe5b9060005260206000200160009054906101000a900473ffffffffffffffffffffffffffffffffffffffff1673ffffffffffffffffffffffffffffffffffffffff1673ffffffffffffffffffffffffffffffffffffffff168152602001908152602001600020905060008160000160009054906101000a900460030b60030b141580610ff8575060008160000160049054906101000a9004600f0b600f0b14155b156110085760009250505061101c565b508080600101915050610f36565b50600190505b90565b600960089054906101000a900467ffffffffffffffff1681565b6000600460008473ffffffffffffffffffffffffffffffffffffffff1673ffffffffffffffffffffffffffffffffffffffff16815260200190815260200160002060000160049054906101000a9004600f0b90506000600460008573ffffffffffffffffffffffffffffffffffffffff1673ffffffffffffffffffffffffffffffffffffffff16815260200190815260200160002060000160009054906101000a900460030b60030b1480156110f25750600081600f0b135b8015611104575080600f0b82600f0b13155b151561119e576040517f08c379a00000000000000000000000000000000000000000000000000000000081526004018080602001828103825260218152602001807f49544d205061727479206e6f7420656c696769626c6520746f2072656365697681526020017f650000000000000000000000000000000000000000000000000000000000000081525060400191505060405180910390fd5b60008490508073ffffffffffffffffffffffffffffffffffffffff16631f46b84e85856040518363ffffffff167c0100000000000000000000000000000000000000000000000000000000028152600401808373ffffffffffffffffffffffffffffffffffffffff1673ffffffffffffffffffffffffffffffffffffffff16815260200182600f0b600f0b815260200192505050600060405180830381600087803b15801561124c57600080fd5b505af1158015611260573d6000803e3d6000fd5b5050505082600460008773ffffffffffffffffffffffffffffffffffffffff1673ffffffffffffffffffffffffffffffffffffffff16815260200190815260200160002060000160048282829054906101000a9004600f0b0192506101000a8154816fffffffffffffffffffffffffffffffff0219169083600f0b6fffffffffffffffffffffffffffffffff16021790555082600460008673ffffffffffffffffffffffffffffffffffffffff1673ffffffffffffffffffffffffffffffffffffffff16815260200190815260200160002060000160048282829054906101000a9004600f0b0392506101000a8154816fffffffffffffffffffffffffffffffff0219169083600f0b6fffffffffffffffffffffffffffffffff1602179055505050505050565b600960109054906101000a900460ff1681565b6000808360030b14156113b05760009050611411565b600082600f0b13156113e7576064600960109054906101000a900460ff1660ff168302600f0b8115156113df57fe5b059050611411565b6064600960109054906101000a900460ff1660ff168360000302600f0b81151561140d57fe5b0590505b92915050565b6000808290508073ffffffffffffffffffffffffffffffffffffffff1663833320ea6040518163ffffffff167c010000000000000000000000000000000000000000000000000000000002815260040160206040518083038186803b15801561147f57600080fd5b505afa158015611493573d6000803e3d6000fd5b505050506040513d60208110156114a957600080fd5b8101908080519060200190929190505050915050919050565b6114ca610ee3565b1580156115205750600260003373ffffffffffffffffffffffffffffffffffffffff1673ffffffffffffffffffffffffffffffffffffffff16815260200190815260200160002060009054906101000a900460ff165b801561158b5750600860149054906101000a900467ffffffffffffffff1667ffffffffffffffff16600360003373ffffffffffffffffffffffffffffffffffffffff1673ffffffffffffffffffffffffffffffffffffffff1681526020019081526020016000205410155b15156115ff576040517f08c379a00000000000000000000000000000000000000000000000000000000081526004018080602001828103825260158152602001807f4e6f7420656c656769626c6520746f207472616465000000000000000000000081525060200191505060405180910390fd5b60008260030b1215801561162657506000600960129054906101000a900460070b60070b12155b15156116c0576040517f08c379a00000000000000000000000000000000000000000000000000000000081526004018080602001828103825260278152602001807f4e6f74696f6e616c20616e64205072696365206d757374206265206e6f6e2d6e81526020017f656761746976650000000000000000000000000000000000000000000000000081525060400191505060405180910390fd5b6116cb338383612f3f565b151561173f576040517f08c379a00000000000000000000000000000000000000000000000000000000081526004018080602001828103825260178152602001807f496e73756666696369656e7420636f6c6c61746572616c00000000000000000081525060200191505060405180910390fd5b61174a33838361309d565b7fea5be23f76e20d2af179614aba30cdbc30dac48b9133a6909feb2370e6bc508b338360000383604051808473ffffffffffffffffffffffffffffffffffffffff1673ffffffffffffffffffffffffffffffffffffffff1681526020018360030b60030b81526020018260070b60070b8152602001935050505060405180910390a16117d533613579565b5050565b838383836117f16117e985613d39565b848484613dbd565b1515611865576040517f08c379a00000000000000000000000000000000000000000000000000000000081526004018080602001828103825260138152602001807f566572696669636174696f6e206661696c65640000000000000000000000000081525060200191505060405180910390fd5b61186d610ee3565b15156118b357600960009054906101000a900467ffffffffffffffff16600960086101000a81548167ffffffffffffffff021916908367ffffffffffffffff1602179055505b8760070b600460008b73ffffffffffffffffffffffffffffffffffffffff1673ffffffffffffffffffffffffffffffffffffffff16815260200190815260200160002060000160009054906101000a900460030b60030b02600460008b73ffffffffffffffffffffffffffffffffffffffff1673ffffffffffffffffffffffffffffffffffffffff16815260200190815260200160002060000160048282829054906101000a9004600f0b0192506101000a8154816fffffffffffffffffffffffffffffffff0219169083600f0b6fffffffffffffffffffffffffffffffff1602179055506000600460008b73ffffffffffffffffffffffffffffffffffffffff1673ffffffffffffffffffffffffffffffffffffffff16815260200190815260200160002060000160006101000a81548163ffffffff021916908360030b63ffffffff160217905550505050505050505050565b611a10610ee3565b158015611a665750600260003373ffffffffffffffffffffffffffffffffffffffff1673ffffffffffffffffffffffffffffffffffffffff16815260200190815260200160002060009054906101000a900460ff165b8015611ad15750600860149054906101000a900467ffffffffffffffff1667ffffffffffffffff16600360003373ffffffffffffffffffffffffffffffffffffffff1673ffffffffffffffffffffffffffffffffffffffff1681526020019081526020016000205410155b1515611b45576040517f08c379a00000000000000000000000000000000000000000000000000000000081526004018080602001828103825260158152602001807f4e6f7420656c656769626c6520746f207472616465000000000000000000000081525060200191505060405180910390fd5b600260008373ffffffffffffffffffffffffffffffffffffffff1673ffffffffffffffffffffffffffffffffffffffff16815260200190815260200160002060009054906101000a900460ff168015611bfd5750600860149054906101000a900467ffffffffffffffff1667ffffffffffffffff16600360008473ffffffffffffffffffffffffffffffffffffffff1673ffffffffffffffffffffffffffffffffffffffff1681526020019081526020016000205410155b1515611c71576040517f08c379a00000000000000000000000000000000000000000000000000000000081526004018080602001828103825260188152602001807f526563697069656e74206e6f742072656769737465726564000000000000000081525060200191505060405180910390fd5b60008160030b131515611cec576040517f08c379a000000000000000000000000000000000000000000000000000000000815260040180806020018281038252601d8152602001807f4e6f74696f6e616c206d7573742062652067726561746572207a65726f00000081525060200191505060405180910390fd5b611edf33611eda83600460003373ffffffffffffffffffffffffffffffffffffffff1673ffffffffffffffffffffffffffffffffffffffff16815260200190815260200160002060000160009054906101000a900460030b03600460003373ffffffffffffffffffffffffffffffffffffffff1673ffffffffffffffffffffffffffffffffffffffff16815260200190815260200160002060000160049054906101000a9004600f0b600560003373ffffffffffffffffffffffffffffffffffffffff1673ffffffffffffffffffffffffffffffffffffffff16815260200190815260200160002060000160009054906101000a900460030b600560003373ffffffffffffffffffffffffffffffffffffffff1673ffffffffffffffffffffffffffffffffffffffff16815260200190815260200160002060000160049054906101000a900460070b600660003373ffffffffffffffffffffffffffffffffffffffff1673ffffffffffffffffffffffffffffffffffffffff16815260200190815260200160002060000160009054906101000a900460030b600660003373ffffffffffffffffffffffffffffffffffffffff1673ffffffffffffffffffffffffffffffffffffffff16815260200190815260200160002060000160049054906101000a900460070b6122bd565b613e7f565b1515611f53576040517f08c379a00000000000000000000000000000000000000000000000000000000081526004018080602001828103825260178152602001807f496e73756666696369656e7420636f6c6c61746572616c00000000000000000081525060200191505060405180910390fd5b80600460003373ffffffffffffffffffffffffffffffffffffffff1673ffffffffffffffffffffffffffffffffffffffff16815260200190815260200160002060000160008282829054906101000a900460030b0392506101000a81548163ffffffff021916908360030b63ffffffff16021790555080600460008473ffffffffffffffffffffffffffffffffffffffff1673ffffffffffffffffffffffffffffffffffffffff16815260200190815260200160002060000160008282829054906101000a900460030b0192506101000a81548163ffffffff021916908360030b63ffffffff1602179055505050565b6000809054906101000a900473ffffffffffffffffffffffffffffffffffffffff1673ffffffffffffffffffffffffffffffffffffffff163373ffffffffffffffffffffffffffffffffffffffff16141515612107576040517f08c379a000000000000000000000000000000000000000000000000000000000815260040180806020018281038252600e8152602001807f4e6f7420617574686f72697a656400000000000000000000000000000000000081525060200191505060405180910390fd5b61210f610ee3565b801561211f575061211e610f2e565b5b1515612193576040517f08c379a000000000000000000000000000000000000000000000000000000000815260040180806020018281038252600f8152602001807f436f6e747261637420696e20757365000000000000000000000000000000000081525060200191505060405180910390fd5b6000809054906101000a900473ffffffffffffffffffffffffffffffffffffffff1673ffffffffffffffffffffffffffffffffffffffff16ff5b60006064600960119054906101000a900460ff1660640360ff16600960129054906101000a900460070b0260070b81151561220457fe5b05905090565b6060600180548060200260200160405190810160405280929190818152602001828054801561228e57602002820191906000526020600020905b8160009054906101000a900473ffffffffffffffffffffffffffffffffffffffff1673ffffffffffffffffffffffffffffffffffffffff1681526020019060010190808311612244575b5050505050905090565b6000809054906101000a900473ffffffffffffffffffffffffffffffffffffffff1681565b6000806122ca88886129a4565b905060006122e4878a018760070b8960030b028a036129a4565b905060006122fe868b038660070b8860030b028b016129a4565b905060008383039050600084830390506000859050600083600f0b13156123255782810190505b600082600f0b13156123375781810190505b8096505050505050509695505050505050565b6000809054906101000a900473ffffffffffffffffffffffffffffffffffffffff1673ffffffffffffffffffffffffffffffffffffffff163373ffffffffffffffffffffffffffffffffffffffff1614151561240e576040517f08c379a000000000000000000000000000000000000000000000000000000000815260040180806020018281038252600e8152602001807f4e6f7420617574686f72697a656400000000000000000000000000000000000081525060200191505060405180910390fd5b80600260008473ffffffffffffffffffffffffffffffffffffffff1673ffffffffffffffffffffffffffffffffffffffff16815260200190815260200160002060006101000a81548160ff0219169083151502179055505050565b6000809054906101000a900473ffffffffffffffffffffffffffffffffffffffff1673ffffffffffffffffffffffffffffffffffffffff163373ffffffffffffffffffffffffffffffffffffffff1614151561252d576040517f08c379a000000000000000000000000000000000000000000000000000000000815260040180806020018281038252600e8152602001807f4e6f7420617574686f72697a656400000000000000000000000000000000000081525060200191505060405180910390fd5b60008090505b6001805490508110156125c0578173ffffffffffffffffffffffffffffffffffffffff1660018281548110151561256657fe5b9060005260206000200160009054906101000a900473ffffffffffffffffffffffffffffffffffffffff1673ffffffffffffffffffffffffffffffffffffffff1614156125b35750612633565b8080600101915050612533565b5060018190806001815401808255809150509060018203906000526020600020016000909192909190916101000a81548173ffffffffffffffffffffffffffffffffffffffff021916908373ffffffffffffffffffffffffffffffffffffffff1602179055505061263281600161234a565b5b50565b600960129054906101000a900460070b81565b612651610ee3565b1580156126a75750600260003373ffffffffffffffffffffffffffffffffffffffff1673ffffffffffffffffffffffffffffffffffffffff16815260200190815260200160002060009054906101000a900460ff165b80156127125750600860149054906101000a900467ffffffffffffffff1667ffffffffffffffff16600360003373ffffffffffffffffffffffffffffffffffffffff1673ffffffffffffffffffffffffffffffffffffffff1681526020019081526020016000205410155b1515612786576040517f08c379a00000000000000000000000000000000000000000000000000000000081526004018080602001828103825260158152602001807f4e6f7420656c656769626c6520746f207472616465000000000000000000000081525060200191505060405180910390fd5b60008260030b121580156127ad57506000600960129054906101000a900460070b60070b12155b1515612847576040517f08c379a00000000000000000000000000000000000000000000000000000000081526004018080602001828103825260278152602001807f4e6f74696f6e616c20616e64205072696365206d757374206265206e6f6e2d6e81526020017f656761746976650000000000000000000000000000000000000000000000000081525060400191505060405180910390fd5b612852338383614140565b15156128c6576040517f08c379a00000000000000000000000000000000000000000000000000000000081526004018080602001828103825260178152602001807f496e73756666696369656e7420636f6c6c61746572616c00000000000000000081525060200191505060405180910390fd5b6128d133838361429e565b7fea5be23f76e20d2af179614aba30cdbc30dac48b9133a6909feb2370e6bc508b338383604051808473ffffffffffffffffffffffffffffffffffffffff1673ffffffffffffffffffffffffffffffffffffffff1681526020018360030b60030b81526020018260070b60070b8152602001935050505060405180910390a16129593361477a565b5050565b6000808360030b131561298657816129736121cd565b60070b8460030b0201600003905061299e565b8161298f612bd9565b60070b8460030b020160000390505b92915050565b6000808360030b1380156129bc5750600082600f0b12155b156129ca5760009050612a52565b60008360030b14156129f757600082600f0b1215156129ec5760009050612a52565b816000039050612a52565b6000612a03848461295d565b612a0d858561139a565b019050600081600f0b1215612a2157600090505b60008460030b138015612a3c575082600003600f0b81600f0b135b15612a4d5782600003915050612a52565b809150505b92915050565b600080600560008473ffffffffffffffffffffffffffffffffffffffff1673ffffffffffffffffffffffffffffffffffffffff16815260200190815260200160002060000160009054906101000a900460030b600560008573ffffffffffffffffffffffffffffffffffffffff1673ffffffffffffffffffffffffffffffffffffffff16815260200190815260200160002060000160049054906101000a900460070b91509150915091565b6000600260008373ffffffffffffffffffffffffffffffffffffffff1673ffffffffffffffffffffffffffffffffffffffff16815260200190815260200160002060009054906101000a900460ff161580612bc15750612b62610ee3565b8015612bc057506000600460008473ffffffffffffffffffffffffffffffffffffffff1673ffffffffffffffffffffffffffffffffffffffff16815260200190815260200160002060000160049054906101000a9004600f0b600f0b145b5b15612bcf5760009050612bd4565b600190505b919050565b60006064600960119054906101000a900460ff1660640160ff16600960129054906101000a900460070b0260070b811515612c1057fe5b05905090565b600960009054906101000a900467ffffffffffffffff1681565b600860149054906101000a900467ffffffffffffffff1681565b600080600660008473ffffffffffffffffffffffffffffffffffffffff1673ffffffffffffffffffffffffffffffffffffffff16815260200190815260200160002060000160009054906101000a900460030b600660008573ffffffffffffffffffffffffffffffffffffffff1673ffffffffffffffffffffffffffffffffffffffff16815260200190815260200160002060000160049054906101000a900460070b91509150915091565b60008190508073ffffffffffffffffffffffffffffffffffffffff1663543fc62a6040518163ffffffff167c0100000000000000000000000000000000000000000000000000000000028152600401600060405180830381600087803b158015612d5f57600080fd5b505af1158015612d73573d6000803e3d6000fd5b505050505050565b6000809054906101000a900473ffffffffffffffffffffffffffffffffffffffff1673ffffffffffffffffffffffffffffffffffffffff163373ffffffffffffffffffffffffffffffffffffffff16141515612e3f576040517f08c379a000000000000000000000000000000000000000000000000000000000815260040180806020018281038252600e8152602001807f4e6f7420617574686f72697a656400000000000000000000000000000000000081525060200191505060405180910390fd5b600073ffffffffffffffffffffffffffffffffffffffff168173ffffffffffffffffffffffffffffffffffffffff1614151515612ee4576040517f08c379a000000000000000000000000000000000000000000000000000000000815260040180806020018281038252600f8152602001807f496e76616c69642061646472657373000000000000000000000000000000000081525060200191505060405180910390fd5b806000806101000a81548173ffffffffffffffffffffffffffffffffffffffff021916908373ffffffffffffffffffffffffffffffffffffffff16021790555050565b60036020528060005260406000206000915090505481565b60006130948461308f600460008873ffffffffffffffffffffffffffffffffffffffff1673ffffffffffffffffffffffffffffffffffffffff16815260200190815260200160002060000160009054906101000a900460030b600460008973ffffffffffffffffffffffffffffffffffffffff1673ffffffffffffffffffffffffffffffffffffffff16815260200190815260200160002060000160049054906101000a9004600f0b600560008a73ffffffffffffffffffffffffffffffffffffffff1673ffffffffffffffffffffffffffffffffffffffff16815260200190815260200160002060000160009054906101000a900460030b600560008b73ffffffffffffffffffffffffffffffffffffffff1673ffffffffffffffffffffffffffffffffffffffff16815260200190815260200160002060000160049054906101000a900460070b89896122bd565b613e7f565b90509392505050565b6000600660008573ffffffffffffffffffffffffffffffffffffffff1673ffffffffffffffffffffffffffffffffffffffff168152602001908152602001600020905060008360030b14806130f5575060008260070b145b156131555760008160000160006101000a81548163ffffffff021916908360030b63ffffffff16021790555060008160000160046101000a81548167ffffffffffffffff021916908360070b67ffffffffffffffff1602179055506131aa565b828160000160006101000a81548163ffffffff021916908360030b63ffffffff160217905550818160000160046101000a81548167ffffffffffffffff021916908360070b67ffffffffffffffff1602179055505b8373ffffffffffffffffffffffffffffffffffffffff16600760009054906101000a900473ffffffffffffffffffffffffffffffffffffffff1673ffffffffffffffffffffffffffffffffffffffff1614156132665780600001600c9054906101000a900473ffffffffffffffffffffffffffffffffffffffff16600760006101000a81548173ffffffffffffffffffffffffffffffffffffffff021916908373ffffffffffffffffffffffffffffffffffffffff1602179055505b600061327185614f3a565b9050600073ffffffffffffffffffffffffffffffffffffffff168173ffffffffffffffffffffffffffffffffffffffff1614151561334f5781600001600c9054906101000a900473ffffffffffffffffffffffffffffffffffffffff16600660008373ffffffffffffffffffffffffffffffffffffffff1673ffffffffffffffffffffffffffffffffffffffff168152602001908152602001600020600001600c6101000a81548173ffffffffffffffffffffffffffffffffffffffff021916908373ffffffffffffffffffffffffffffffffffffffff1602179055505b6133698260000160049054906101000a900460070b615147565b9050600073ffffffffffffffffffffffffffffffffffffffff168173ffffffffffffffffffffffffffffffffffffffff16141561344b57600760009054906101000a900473ffffffffffffffffffffffffffffffffffffffff1682600001600c6101000a81548173ffffffffffffffffffffffffffffffffffffffff021916908373ffffffffffffffffffffffffffffffffffffffff16021790555084600760006101000a81548173ffffffffffffffffffffffffffffffffffffffff021916908373ffffffffffffffffffffffffffffffffffffffff160217905550613572565b600660008273ffffffffffffffffffffffffffffffffffffffff1673ffffffffffffffffffffffffffffffffffffffff168152602001908152602001600020600001600c9054906101000a900473ffffffffffffffffffffffffffffffffffffffff1682600001600c6101000a81548173ffffffffffffffffffffffffffffffffffffffff021916908373ffffffffffffffffffffffffffffffffffffffff16021790555084600660008373ffffffffffffffffffffffffffffffffffffffff1673ffffffffffffffffffffffffffffffffffffffff168152602001908152602001600020600001600c6101000a81548173ffffffffffffffffffffffffffffffffffffffff021916908373ffffffffffffffffffffffffffffffffffffffff1602179055505b5050505050565b8073ffffffffffffffffffffffffffffffffffffffff16600760009054906101000a900473ffffffffffffffffffffffffffffffffffffffff1673ffffffffffffffffffffffffffffffffffffffff161415613d3657600060066000600760009054906101000a900473ffffffffffffffffffffffffffffffffffffffff1673ffffffffffffffffffffffffffffffffffffffff1673ffffffffffffffffffffffffffffffffffffffff16815260200190815260200160002060000160049054906101000a900460070b90506000600860009054906101000a900473ffffffffffffffffffffffffffffffffffffffff1690505b600073ffffffffffffffffffffffffffffffffffffffff168173ffffffffffffffffffffffffffffffffffffffff161415801561371e5750600060066000600760009054906101000a900473ffffffffffffffffffffffffffffffffffffffff1673ffffffffffffffffffffffffffffffffffffffff1673ffffffffffffffffffffffffffffffffffffffff16815260200190815260200160002060000160009054906101000a900460030b60030b135b801561377c57506000600560008373ffffffffffffffffffffffffffffffffffffffff1673ffffffffffffffffffffffffffffffffffffffff16815260200190815260200160002060000160009054906101000a900460030b60030b135b80156137dd5750600560008273ffffffffffffffffffffffffffffffffffffffff1673ffffffffffffffffffffffffffffffffffffffff16815260200190815260200160002060000160049054906101000a900460070b60070b8260070b13155b15613d23576000600560008373ffffffffffffffffffffffffffffffffffffffff1673ffffffffffffffffffffffffffffffffffffffff16815260200190815260200160002060000160009054906101000a900460030b90508060030b60066000600760009054906101000a900473ffffffffffffffffffffffffffffffffffffffff1673ffffffffffffffffffffffffffffffffffffffff1673ffffffffffffffffffffffffffffffffffffffff16815260200190815260200160002060000160009054906101000a900460030b60030b121561392a5760066000600760009054906101000a900473ffffffffffffffffffffffffffffffffffffffff1673ffffffffffffffffffffffffffffffffffffffff1673ffffffffffffffffffffffffffffffffffffffff16815260200190815260200160002060000160009054906101000a900460030b90505b80600460008673ffffffffffffffffffffffffffffffffffffffff1673ffffffffffffffffffffffffffffffffffffffff16815260200190815260200160002060000160008282829054906101000a900460030b0392506101000a81548163ffffffff021916908360030b63ffffffff1602179055508260070b8160030b02600460008673ffffffffffffffffffffffffffffffffffffffff1673ffffffffffffffffffffffffffffffffffffffff16815260200190815260200160002060000160048282829054906101000a9004600f0b0192506101000a8154816fffffffffffffffffffffffffffffffff0219169083600f0b6fffffffffffffffffffffffffffffffff16021790555080600460008473ffffffffffffffffffffffffffffffffffffffff1673ffffffffffffffffffffffffffffffffffffffff16815260200190815260200160002060000160008282829054906101000a900460030b0192506101000a81548163ffffffff021916908360030b63ffffffff1602179055508260070b8160030b02600460008473ffffffffffffffffffffffffffffffffffffffff1673ffffffffffffffffffffffffffffffffffffffff16815260200190815260200160002060000160048282829054906101000a9004600f0b0392506101000a8154816fffffffffffffffffffffffffffffffff0219169083600f0b6fffffffffffffffffffffffffffffffff1602179055508060066000600760009054906101000a900473ffffffffffffffffffffffffffffffffffffffff1673ffffffffffffffffffffffffffffffffffffffff1673ffffffffffffffffffffffffffffffffffffffff16815260200190815260200160002060000160008282829054906101000a900460030b0392506101000a81548163ffffffff021916908360030b63ffffffff16021790555080600560008473ffffffffffffffffffffffffffffffffffffffff1673ffffffffffffffffffffffffffffffffffffffff16815260200190815260200160002060000160008282829054906101000a900460030b0392506101000a81548163ffffffff021916908360030b63ffffffff160217905550613c5c828583866152e2565b6000600560008473ffffffffffffffffffffffffffffffffffffffff1673ffffffffffffffffffffffffffffffffffffffff16815260200190815260200160002060000160009054906101000a900460030b60030b1415613d1d57600560008373ffffffffffffffffffffffffffffffffffffffff1673ffffffffffffffffffffffffffffffffffffffff168152602001908152602001600020600001600c9054906101000a900473ffffffffffffffffffffffffffffffffffffffff1691505b5061366d565b613d2b6153c7565b613d33615670565b50505b50565b600081604051602001808260070b60070b81526020019150506040516020818303038152906040528051906020012060405160200180807f19457468657265756d205369676e6564204d6573736167653a0a333200000000815250601c01828152602001915050604051602081830303815290604052805190602001209050919050565b60008060009054906101000a900473ffffffffffffffffffffffffffffffffffffffff1673ffffffffffffffffffffffffffffffffffffffff1660018686868660405160008152602001604052604051808581526020018460ff1660ff1681526020018381526020018281526020019450505050506020604051602081039080840390855afa158015613e54573d6000803e3d6000fd5b5050506020604051035173ffffffffffffffffffffffffffffffffffffffff16149050949350505050565b60008061406a600460008673ffffffffffffffffffffffffffffffffffffffff1673ffffffffffffffffffffffffffffffffffffffff16815260200190815260200160002060000160009054906101000a900460030b600460008773ffffffffffffffffffffffffffffffffffffffff1673ffffffffffffffffffffffffffffffffffffffff16815260200190815260200160002060000160049054906101000a9004600f0b600560008873ffffffffffffffffffffffffffffffffffffffff1673ffffffffffffffffffffffffffffffffffffffff16815260200190815260200160002060000160009054906101000a900460030b600560008973ffffffffffffffffffffffffffffffffffffffff1673ffffffffffffffffffffffffffffffffffffffff16815260200190815260200160002060000160049054906101000a900460070b600660008a73ffffffffffffffffffffffffffffffffffffffff1673ffffffffffffffffffffffffffffffffffffffff16815260200190815260200160002060000160009054906101000a900460030b600660008b73ffffffffffffffffffffffffffffffffffffffff1673ffffffffffffffffffffffffffffffffffffffff16815260200190815260200160002060000160049054906101000a900460070b6122bd565b905080600f0b83600f0b13151561408557600191505061413a565b600084905060008173ffffffffffffffffffffffffffffffffffffffff166369674ec96040518163ffffffff167c010000000000000000000000000000000000000000000000000000000002815260040160206040518083038186803b1580156140ee57600080fd5b505afa158015614102573d6000803e3d6000fd5b505050506040513d602081101561411857600080fd5b8101908080519060200190929190505050905080838603600f0b111593505050505b92915050565b600061429584614290600460008873ffffffffffffffffffffffffffffffffffffffff1673ffffffffffffffffffffffffffffffffffffffff16815260200190815260200160002060000160009054906101000a900460030b600460008973ffffffffffffffffffffffffffffffffffffffff1673ffffffffffffffffffffffffffffffffffffffff16815260200190815260200160002060000160049054906101000a9004600f0b8787600660008c73ffffffffffffffffffffffffffffffffffffffff1673ffffffffffffffffffffffffffffffffffffffff16815260200190815260200160002060000160009054906101000a900460030b600660008d73ffffffffffffffffffffffffffffffffffffffff1673ffffffffffffffffffffffffffffffffffffffff16815260200190815260200160002060000160049054906101000a900460070b6122bd565b613e7f565b90509392505050565b6000600560008573ffffffffffffffffffffffffffffffffffffffff1673ffffffffffffffffffffffffffffffffffffffff168152602001908152602001600020905060008360030b14806142f6575060008260070b145b156143565760008160000160006101000a81548163ffffffff021916908360030b63ffffffff16021790555060008160000160046101000a81548167ffffffffffffffff021916908360070b67ffffffffffffffff1602179055506143ab565b828160000160006101000a81548163ffffffff021916908360030b63ffffffff160217905550818160000160046101000a81548167ffffffffffffffff021916908360070b67ffffffffffffffff1602179055505b8373ffffffffffffffffffffffffffffffffffffffff16600860009054906101000a900473ffffffffffffffffffffffffffffffffffffffff1673ffffffffffffffffffffffffffffffffffffffff1614156144675780600001600c9054906101000a900473ffffffffffffffffffffffffffffffffffffffff16600860006101000a81548173ffffffffffffffffffffffffffffffffffffffff021916908373ffffffffffffffffffffffffffffffffffffffff1602179055505b600061447285615919565b9050600073ffffffffffffffffffffffffffffffffffffffff168173ffffffffffffffffffffffffffffffffffffffff161415156145505781600001600c9054906101000a900473ffffffffffffffffffffffffffffffffffffffff16600560008373ffffffffffffffffffffffffffffffffffffffff1673ffffffffffffffffffffffffffffffffffffffff168152602001908152602001600020600001600c6101000a81548173ffffffffffffffffffffffffffffffffffffffff021916908373ffffffffffffffffffffffffffffffffffffffff1602179055505b61456a8260000160049054906101000a900460070b615b26565b9050600073ffffffffffffffffffffffffffffffffffffffff168173ffffffffffffffffffffffffffffffffffffffff16141561464c57600860009054906101000a900473ffffffffffffffffffffffffffffffffffffffff1682600001600c6101000a81548173ffffffffffffffffffffffffffffffffffffffff021916908373ffffffffffffffffffffffffffffffffffffffff16021790555084600860006101000a81548173ffffffffffffffffffffffffffffffffffffffff021916908373ffffffffffffffffffffffffffffffffffffffff160217905550614773565b600560008273ffffffffffffffffffffffffffffffffffffffff1673ffffffffffffffffffffffffffffffffffffffff168152602001908152602001600020600001600c9054906101000a900473ffffffffffffffffffffffffffffffffffffffff1682600001600c6101000a81548173ffffffffffffffffffffffffffffffffffffffff021916908373ffffffffffffffffffffffffffffffffffffffff16021790555084600560008373ffffffffffffffffffffffffffffffffffffffff1673ffffffffffffffffffffffffffffffffffffffff168152602001908152602001600020600001600c6101000a81548173ffffffffffffffffffffffffffffffffffffffff021916908373ffffffffffffffffffffffffffffffffffffffff1602179055505b5050505050565b8073ffffffffffffffffffffffffffffffffffffffff16600860009054906101000a900473ffffffffffffffffffffffffffffffffffffffff1673ffffffffffffffffffffffffffffffffffffffff161415614f3757600060056000600860009054906101000a900473ffffffffffffffffffffffffffffffffffffffff1673ffffffffffffffffffffffffffffffffffffffff1673ffffffffffffffffffffffffffffffffffffffff16815260200190815260200160002060000160049054906101000a900460070b90506000600760009054906101000a900473ffffffffffffffffffffffffffffffffffffffff1690505b600073ffffffffffffffffffffffffffffffffffffffff168173ffffffffffffffffffffffffffffffffffffffff161415801561491f5750600060056000600860009054906101000a900473ffffffffffffffffffffffffffffffffffffffff1673ffffffffffffffffffffffffffffffffffffffff1673ffffffffffffffffffffffffffffffffffffffff16815260200190815260200160002060000160009054906101000a900460030b60030b135b801561497d57506000600660008373ffffffffffffffffffffffffffffffffffffffff1673ffffffffffffffffffffffffffffffffffffffff16815260200190815260200160002060000160009054906101000a900460030b60030b135b80156149de5750600660008273ffffffffffffffffffffffffffffffffffffffff1673ffffffffffffffffffffffffffffffffffffffff16815260200190815260200160002060000160049054906101000a900460070b60070b8260070b12155b15614f24576000600660008373ffffffffffffffffffffffffffffffffffffffff1673ffffffffffffffffffffffffffffffffffffffff16815260200190815260200160002060000160009054906101000a900460030b90508060030b60056000600860009054906101000a900473ffffffffffffffffffffffffffffffffffffffff1673ffffffffffffffffffffffffffffffffffffffff1673ffffffffffffffffffffffffffffffffffffffff16815260200190815260200160002060000160009054906101000a900460030b60030b1215614b2b5760056000600860009054906101000a900473ffffffffffffffffffffffffffffffffffffffff1673ffffffffffffffffffffffffffffffffffffffff1673ffffffffffffffffffffffffffffffffffffffff16815260200190815260200160002060000160009054906101000a900460030b90505b80600460008673ffffffffffffffffffffffffffffffffffffffff1673ffffffffffffffffffffffffffffffffffffffff16815260200190815260200160002060000160008282829054906101000a900460030b0192506101000a81548163ffffffff021916908360030b63ffffffff1602179055508260070b8160030b02600460008673ffffffffffffffffffffffffffffffffffffffff1673ffffffffffffffffffffffffffffffffffffffff16815260200190815260200160002060000160048282829054906101000a9004600f0b0392506101000a8154816fffffffffffffffffffffffffffffffff0219169083600f0b6fffffffffffffffffffffffffffffffff16021790555080600460008473ffffffffffffffffffffffffffffffffffffffff1673ffffffffffffffffffffffffffffffffffffffff16815260200190815260200160002060000160008282829054906101000a900460030b0392506101000a81548163ffffffff021916908360030b63ffffffff1602179055508260070b8160030b02600460008473ffffffffffffffffffffffffffffffffffffffff1673ffffffffffffffffffffffffffffffffffffffff16815260200190815260200160002060000160048282829054906101000a9004600f0b0192506101000a8154816fffffffffffffffffffffffffffffffff0219169083600f0b6fffffffffffffffffffffffffffffffff1602179055508060056000600860009054906101000a900473ffffffffffffffffffffffffffffffffffffffff1673ffffffffffffffffffffffffffffffffffffffff1673ffffffffffffffffffffffffffffffffffffffff16815260200190815260200160002060000160008282829054906101000a900460030b0392506101000a81548163ffffffff021916908360030b63ffffffff16021790555080600660008473ffffffffffffffffffffffffffffffffffffffff1673ffffffffffffffffffffffffffffffffffffffff16815260200190815260200160002060000160008282829054906101000a900460030b0392506101000a81548163ffffffff021916908360030b63ffffffff160217905550614e5d848383866152e2565b6000600660008473ffffffffffffffffffffffffffffffffffffffff1673ffffffffffffffffffffffffffffffffffffffff16815260200190815260200160002060000160009054906101000a900460030b60030b1415614f1e57600660008373ffffffffffffffffffffffffffffffffffffffff1673ffffffffffffffffffffffffffffffffffffffff168152602001908152602001600020600001600c9054906101000a900473ffffffffffffffffffffffffffffffffffffffff1691505b5061486e565b614f2c6153c7565b614f34615670565b50505b50565b600080600760009054906101000a900473ffffffffffffffffffffffffffffffffffffffff1690505b600073ffffffffffffffffffffffffffffffffffffffff168173ffffffffffffffffffffffffffffffffffffffff161415801561502e57508273ffffffffffffffffffffffffffffffffffffffff16600660008373ffffffffffffffffffffffffffffffffffffffff1673ffffffffffffffffffffffffffffffffffffffff168152602001908152602001600020600001600c9054906101000a900473ffffffffffffffffffffffffffffffffffffffff1673ffffffffffffffffffffffffffffffffffffffff1614155b1561509d57600660008273ffffffffffffffffffffffffffffffffffffffff1673ffffffffffffffffffffffffffffffffffffffff168152602001908152602001600020600001600c9054906101000a900473ffffffffffffffffffffffffffffffffffffffff169050614f63565b8273ffffffffffffffffffffffffffffffffffffffff16600660008373ffffffffffffffffffffffffffffffffffffffff1673ffffffffffffffffffffffffffffffffffffffff168152602001908152602001600020600001600c9054906101000a900473ffffffffffffffffffffffffffffffffffffffff1673ffffffffffffffffffffffffffffffffffffffff16141561513c5780915050615142565b60009150505b919050565b600080600090506000600760009054906101000a900473ffffffffffffffffffffffffffffffffffffffff1690505b600073ffffffffffffffffffffffffffffffffffffffff168173ffffffffffffffffffffffffffffffffffffffff161415801561520557506000600660008373ffffffffffffffffffffffffffffffffffffffff1673ffffffffffffffffffffffffffffffffffffffff16815260200190815260200160002060000160009054906101000a900460030b60030b135b80156152665750600660008273ffffffffffffffffffffffffffffffffffffffff1673ffffffffffffffffffffffffffffffffffffffff16815260200190815260200160002060000160049054906101000a900460070b60070b8460070b12155b156152d857809150600660008373ffffffffffffffffffffffffffffffffffffffff1673ffffffffffffffffffffffffffffffffffffffff168152602001908152602001600020600001600c9054906101000a900473ffffffffffffffffffffffffffffffffffffffff169050615176565b8192505050919050565b80600960126101000a81548167ffffffffffffffff021916908360070b67ffffffffffffffff1602179055507f8138ca185870ad93189d1777b49ee8e5c48191504c8d40a50d2e69e0cb7b372584848484604051808573ffffffffffffffffffffffffffffffffffffffff1673ffffffffffffffffffffffffffffffffffffffff1681526020018473ffffffffffffffffffffffffffffffffffffffff1673ffffffffffffffffffffffffffffffffffffffff1681526020018360030b60030b81526020018260070b60070b815260200194505050505060405180910390a150505050565b60006153d1615cc1565b90506000600860009054906101000a900473ffffffffffffffffffffffffffffffffffffffff1690505b600073ffffffffffffffffffffffffffffffffffffffff168173ffffffffffffffffffffffffffffffffffffffff161415801561548a57506000600560008373ffffffffffffffffffffffffffffffffffffffff1673ffffffffffffffffffffffffffffffffffffffff16815260200190815260200160002060000160009054906101000a900460030b60030b145b1561566c576000600560008373ffffffffffffffffffffffffffffffffffffffff1673ffffffffffffffffffffffffffffffffffffffff16815260200190815260200160002060000160046101000a81548167ffffffffffffffff021916908360070b67ffffffffffffffff16021790555080600560008473ffffffffffffffffffffffffffffffffffffffff1673ffffffffffffffffffffffffffffffffffffffff168152602001908152602001600020600001600c6101000a81548173ffffffffffffffffffffffffffffffffffffffff021916908373ffffffffffffffffffffffffffffffffffffffff1602179055508091506000600560008473ffffffffffffffffffffffffffffffffffffffff1673ffffffffffffffffffffffffffffffffffffffff168152602001908152602001600020600001600c6101000a81548173ffffffffffffffffffffffffffffffffffffffff021916908373ffffffffffffffffffffffffffffffffffffffff160217905550600560008273ffffffffffffffffffffffffffffffffffffffff1673ffffffffffffffffffffffffffffffffffffffff168152602001908152602001600020600001600c9054906101000a900473ffffffffffffffffffffffffffffffffffffffff1690506153fb565b5050565b600061567a615df3565b90506000600760009054906101000a900473ffffffffffffffffffffffffffffffffffffffff1690505b600073ffffffffffffffffffffffffffffffffffffffff168173ffffffffffffffffffffffffffffffffffffffff161415801561573357506000600660008373ffffffffffffffffffffffffffffffffffffffff1673ffffffffffffffffffffffffffffffffffffffff16815260200190815260200160002060000160009054906101000a900460030b60030b145b15615915576000600660008373ffffffffffffffffffffffffffffffffffffffff1673ffffffffffffffffffffffffffffffffffffffff16815260200190815260200160002060000160046101000a81548167ffffffffffffffff021916908360070b67ffffffffffffffff16021790555080600660008473ffffffffffffffffffffffffffffffffffffffff1673ffffffffffffffffffffffffffffffffffffffff168152602001908152602001600020600001600c6101000a81548173ffffffffffffffffffffffffffffffffffffffff021916908373ffffffffffffffffffffffffffffffffffffffff1602179055508091506000600660008473ffffffffffffffffffffffffffffffffffffffff1673ffffffffffffffffffffffffffffffffffffffff168152602001908152602001600020600001600c6101000a81548173ffffffffffffffffffffffffffffffffffffffff021916908373ffffffffffffffffffffffffffffffffffffffff160217905550600660008273ffffffffffffffffffffffffffffffffffffffff1673ffffffffffffffffffffffffffffffffffffffff168152602001908152602001600020600001600c9054906101000a900473ffffffffffffffffffffffffffffffffffffffff1690506156a4565b5050565b600080600860009054906101000a900473ffffffffffffffffffffffffffffffffffffffff1690505b600073ffffffffffffffffffffffffffffffffffffffff168173ffffffffffffffffffffffffffffffffffffffff1614158015615a0d57508273ffffffffffffffffffffffffffffffffffffffff16600560008373ffffffffffffffffffffffffffffffffffffffff1673ffffffffffffffffffffffffffffffffffffffff168152602001908152602001600020600001600c9054906101000a900473ffffffffffffffffffffffffffffffffffffffff1673ffffffffffffffffffffffffffffffffffffffff1614155b15615a7c57600560008273ffffffffffffffffffffffffffffffffffffffff1673ffffffffffffffffffffffffffffffffffffffff168152602001908152602001600020600001600c9054906101000a900473ffffffffffffffffffffffffffffffffffffffff169050615942565b8273ffffffffffffffffffffffffffffffffffffffff16600560008373ffffffffffffffffffffffffffffffffffffffff1673ffffffffffffffffffffffffffffffffffffffff168152602001908152602001600020600001600c9054906101000a900473ffffffffffffffffffffffffffffffffffffffff1673ffffffffffffffffffffffffffffffffffffffff161415615b1b5780915050615b21565b60009150505b919050565b600080600090506000600860009054906101000a900473ffffffffffffffffffffffffffffffffffffffff1690505b600073ffffffffffffffffffffffffffffffffffffffff168173ffffffffffffffffffffffffffffffffffffffff1614158015615be457506000600560008373ffffffffffffffffffffffffffffffffffffffff1673ffffffffffffffffffffffffffffffffffffffff16815260200190815260200160002060000160009054906101000a900460030b60030b135b8015615c455750600560008273ffffffffffffffffffffffffffffffffffffffff1673ffffffffffffffffffffffffffffffffffffffff16815260200190815260200160002060000160049054906101000a900460070b60070b8460070b13155b15615cb757809150600560008373ffffffffffffffffffffffffffffffffffffffff1673ffffffffffffffffffffffffffffffffffffffff168152602001908152602001600020600001600c9054906101000a900473ffffffffffffffffffffffffffffffffffffffff169050615b55565b8192505050919050565b600080600860009054906101000a900473ffffffffffffffffffffffffffffffffffffffff1690505b600073ffffffffffffffffffffffffffffffffffffffff16600560008373ffffffffffffffffffffffffffffffffffffffff1673ffffffffffffffffffffffffffffffffffffffff168152602001908152602001600020600001600c9054906101000a900473ffffffffffffffffffffffffffffffffffffffff1673ffffffffffffffffffffffffffffffffffffffff16141515615dec57600560008273ffffffffffffffffffffffffffffffffffffffff1673ffffffffffffffffffffffffffffffffffffffff168152602001908152602001600020600001600c9054906101000a900473ffffffffffffffffffffffffffffffffffffffff169050615cea565b8091505090565b600080600760009054906101000a900473ffffffffffffffffffffffffffffffffffffffff1690505b600073ffffffffffffffffffffffffffffffffffffffff16600660008373ffffffffffffffffffffffffffffffffffffffff1673ffffffffffffffffffffffffffffffffffffffff168152602001908152602001600020600001600c9054906101000a900473ffffffffffffffffffffffffffffffffffffffff1673ffffffffffffffffffffffffffffffffffffffff16141515615f1e57600660008273ffffffffffffffffffffffffffffffffffffffff1673ffffffffffffffffffffffffffffffffffffffff168152602001908152602001600020600001600c9054906101000a900473ffffffffffffffffffffffffffffffffffffffff169050615e1c565b809150509056fea165627a7a72305820339704464cb16526746d18c1a20483839313ad114e1c1c800ab984c2c3e5d4fb0029",
  "source": "\n// File: contracts/Derivative.sol\n\n/**\n*  Copyright 2019 Steffen Lehmann\n* Deployment not permitted except to local test networks\n**/\n\npragma solidity ^0.5.0;\n\ninterface AccountProxy {\n    function getTotalAvailable() external view returns (uint256);\n    function isInsufficientBalance() external view returns (bool);\n    function closeOut() external;\n    function settle(address destination, int128 amount) external;\n}\n\n/**\n * @title Derivative\n * @dev Base Class\n * This is the base class for all derivative contracts\n * and should not be used directly\n */\ncontract Derivative {\n    address payable public owner;\n    address[] private accounts;\n    mapping(address => bool) public verified;\n    mapping(address => uint) public fees;\n    mapping(address => Position) internal positions;\n    mapping(address => Order) internal bids;\n    mapping(address => Order) internal asks;\n    address private lowestAsk;\n    address private highestBid;\n    uint64 public fee;\n    uint64 public expirationTime; // Expiration DateTime code (UTC)\n    uint64 public valuationTime; // Last valuation DateTime code (UTC)\n    uint8 public initialMarginRate;\n    uint8 public variationMarginRate;\n    int64 public price;\n               \n    struct Position {\n        int32 notional; // Units of the undelying e.g. cents\n        int128 amount;    // Wei\n    }\n\n    struct Order {\n        int32 notional; // Units of the underlying e.g. cents    \n        int64 price;    // Wei per one unit of the underlying (Wei / cent)\n        address next;\n    }\n\n    /**\n     * @dev Constructor should only be called from unit tests\n     */\n    constructor() public {\n        owner = msg.sender;\n    }\n\n    modifier onlyOwner() {\n        require(msg.sender == owner, \"Not authorized\");\n        _;\n    }\n\n    modifier canTrade() {\n        require(!isExpired() && verified[msg.sender] && fees[msg.sender] >= fee, \"Not elegible to trade\");\n        _;\n    }\n\n    /**************************************\n    * Private and internal Methods\n    **************************************/\n\n    function getPrecedingBid(address account) private view returns (address) {\n        address previous = highestBid;\n        while (previous != address(0) && bids[previous].next != account) {\n            previous = bids[previous].next;\n        }\n        if (bids[previous].next == account)\n            return previous;\n        return address(0);\n    }\n\n    function getPrecedingAsk(address account) private view returns (address) {\n        address previous = lowestAsk;\n        while (previous != address(0) && asks[previous].next != account) {\n            previous = asks[previous].next;\n        }\n        if (asks[previous].next == account)\n            return previous;\n        return address(0);\n    }\n\n    function getNextHigherBid(int64 bidPrice) private view returns (address) {\n        address previous = address(0);\n        address next = highestBid;\n        while (next != address(0) && bids[next].notional > 0 && bidPrice <= bids[next].price) {\n            previous = next;\n            next = bids[previous].next;\n        }\n        return previous;\n    }\n\n    function getNextLowerAsk(int64 askPrice) private view returns (address) {\n        address previous = address(0);\n        address next = lowestAsk;\n        while (next != address(0) && asks[next].notional > 0 && askPrice >= asks[next].price) {\n            previous = next;\n            next = asks[previous].next;\n        }\n        return previous;\n    }\n\n    /**\n    * @dev if new order reduces collat requirement then allow even if account balance is insufficient\n    */\n    function preClear(address account, int128 requirement) private view returns (bool) {\n        // Clear if new trade reduces requirement (or does not change it)\n        int128 currentRequirement = getCollateralRequirement(positions[account].notional, positions[account].amount, bids[account].notional, bids[account].price, asks[account].notional, asks[account].price);\n        if (requirement <= currentRequirement)\n            return true;\n\n        AccountProxy proxy = AccountProxy(account);\n        uint256 availableBalance = proxy.getTotalAvailable();\n        // Difference guaranteed to be positive\n        return uint256(requirement - currentRequirement) <= availableBalance;\n    }\n\n    function preClearBid(address account, int32 notional, int64 bidPrice) private view returns (bool) {\n        return preClear(account, getCollateralRequirement(positions[account].notional, positions[account].amount, notional, bidPrice, asks[account].notional, asks[account].price));\n    }\n\n    function preClearAsk(address account, int32 notional, int64 askPrice) private view returns (bool) {\n        return preClear(account, getCollateralRequirement(positions[account].notional, positions[account].amount, bids[account].notional, bids[account].price, notional, askPrice));\n    }\n\n    function updateBid(address account, int32 notional, int64 bidPrice) private {\n        Order storage bid = bids[account];\n        if (notional == 0 || bidPrice == 0) {\n            bid.notional = 0;\n            bid.price = 0;\n        } else {\n            bid.notional = notional;\n            bid.price = bidPrice;\n        }\n        if (highestBid == account)\n            highestBid = bid.next;\n        address previous = getPrecedingBid(account);\n        if (previous != address(0))\n            bids[previous].next = bid.next;\n        previous = getNextHigherBid(bid.price);\n        if (previous == address(0)) {\n            bid.next = highestBid;\n            highestBid = account;\n        } else {\n            bid.next = bids[previous].next;\n            bids[previous].next = account;\n        }\n    }\n\n    function updateAsk(address account, int32 notional, int64 askPrice) private {\n        Order storage ask = asks[account];\n        if (notional == 0 || askPrice == 0) {\n            ask.notional = 0;\n            ask.price = 0;\n        } else {\n            ask.notional = notional;\n            ask.price = askPrice;\n        }\n        if (lowestAsk == account)\n            lowestAsk = ask.next;\n        address previous = getPrecedingAsk(account);\n        if (previous != address(0))\n            asks[previous].next = ask.next;\n        previous = getNextLowerAsk(ask.price);\n        if (previous == address(0)) {\n            ask.next = lowestAsk;\n            lowestAsk = account;\n        } else {\n            ask.next = asks[previous].next;\n            asks[previous].next = account;\n        }\n    }\n\n    function clearLong(address account) private {\n        if (highestBid == account) {\n            int64 bidPrice = bids[highestBid].price;\n            address current = lowestAsk;\n            while (current != address(0) && bids[highestBid].notional > 0 && asks[current].notional > 0 && bidPrice >= asks[current].price) {\n                int32 notional = asks[current].notional;\n                if (bids[highestBid].notional < notional)\n                    notional = bids[highestBid].notional;\n                positions[account].notional += notional;\n                positions[account].amount -= int128(notional) * int128(bidPrice);\n                positions[current].notional -= notional;\n                positions[current].amount += int128(notional) * int128(bidPrice);\n                bids[highestBid].notional -= notional;\n                asks[current].notional -= notional;\n                clearTrade(account, current, notional, bidPrice);\n                if (asks[current].notional == 0)\n                    current = asks[current].next;    \n            }\n            removeClearedBids();\n            removeClearedAsks();\n        }\n    }\n\n    function clearShort(address account) private {\n        if (lowestAsk == account) {\n            int64 askPrice = asks[lowestAsk].price;\n            address current = highestBid;\n            while (current != address(0) && asks[lowestAsk].notional > 0 && bids[current].notional > 0 && askPrice <= bids[current].price) {\n                int32 notional = bids[current].notional;\n                if (asks[lowestAsk].notional < notional)\n                    notional = asks[lowestAsk].notional;\n                positions[account].notional -= notional;\n                positions[account].amount += int128(notional) * int128(askPrice);\n                positions[current].notional += notional;\n                positions[current].amount -= int128(notional) * int128(askPrice);\n                asks[lowestAsk].notional -= notional;\n                bids[current].notional -= notional;\n                clearTrade(current, account, notional, askPrice);\n                if (bids[current].notional == 0)\n                    current = bids[current].next;\n            }\n            removeClearedBids();\n            removeClearedAsks();\n        }\n    }\n\n    function clearTrade(address longAccount, address shortAccount, int32 notional, int64 xp) private {\n        emit TradeCleared(longAccount, shortAccount, notional, xp);\n    }\n\n    function getLastBid() private view returns (address) {\n        address current = highestBid;\n        while (bids[current].next != address(0)) {\n            current = bids[current].next;\n        }\n        return current;\n    }\n\n    function getLastAsk() private view returns (address) {\n        address current = lowestAsk;\n        while (asks[current].next != address(0)) {\n            current = asks[current].next;\n        }\n        return current;\n    }\n\n    function removeClearedBids() private {\n        address lastBid = getLastBid();\n        address current = highestBid;\n        while (current != address(0) && bids[current].notional == 0) {\n            bids[current].price = 0;\n            bids[lastBid].next = current;\n            lastBid = current;\n            bids[lastBid].next = address(0);\n            current = bids[current].next;\n        }\n    }\n\n    function removeClearedAsks() private {\n        address lastAsk = getLastAsk();\n        address current = lowestAsk;\n        while (current != address(0) && asks[current].notional == 0) {\n            asks[current].price = 0;\n            asks[lastAsk].next = current;\n            lastAsk = current;\n            asks[lastAsk].next = address(0);\n            current = asks[current].next;\n        }\n    }\n\n    /**************************************\n    * Events\n    **************************************/\n    event FeePaid(address account, uint256 amount);\n    event OrderPosted(address account, int32 notional, int64 xp);\n    event TradeCleared(address longAccount, address shortAccount, int32 notional, int64 xp);\n\n    /*****************************************************\n    * Public Methods - Called extarnally and from contract\n    *****************************************************/\n\n    function isExpired() public view returns (bool) {\n        return valuationTime >= expirationTime;\n    }\n\n    function isSettled() public view returns (bool) {\n        for (uint i = 0; i < accounts.length; i++) {\n            Position storage pos = positions[accounts[i]];\n            if (pos.notional != 0 || pos.amount != 0)\n                return false;\n        }\n        return true;\n    }\n\n    /*************************************\n    * External Methods - Non Restricted\n    **************************************/\n\n    function getAccounts() external view returns (address[] memory) { return accounts; }\n\n    function isInUse(address account) external view returns (bool) {\n        if (!verified[account] || (isExpired() && positions[account].amount == 0))\n            return false;\n        return true;\n    }\n\n    function getPosition(address account) external view returns (int32, int128) {\n        return (positions[account].notional, positions[account].amount);\n    } \n\n    function getBid(address account) external view returns (int32, int64) {\n        return (bids[account].notional, bids[account].price);\n    }  \n\n    function getAsk(address account) external view returns (int32, int64) {\n        return (asks[account].notional, asks[account].price);\n    }\n\n    function getHighEstimate() public view returns (int64) {\n        return price * (100 + variationMarginRate) / 100;\n    }\n\n    function getLowEstimate() public view returns (int64) {\n        return price * (100 - variationMarginRate) / 100;\n    }\n\n    function getMarkToMarket(int32 notional, int128 amount) external view returns (int128) {\n        return int128(notional) * price + amount;\n    }\n\n    function getVariationMargin(int32 notional, int128 amount) public view returns (int128) {\n        if (notional > 0)\n            return -(int128(notional) * getLowEstimate() + amount);\n        return -(int128(notional) * getHighEstimate() + amount);\n    }\n\n    function getInitialMargin(int32 notional, int128 amount) public view returns (int128) {\n        if (notional == 0)\n            return 0;\n        if (amount > 0)\n            return amount * initialMarginRate / 100;\n        else\n            return -amount * initialMarginRate / 100;\n    }\n\n    function getMarginRequirement(int32 notional, int128 amount) public view returns (int128) {\n        if (notional > 0 && amount >= 0) // Long position with no downside risk -> No margin requirement\n            return 0;\n\n        if (notional == 0)   // No exposure\n            if (amount >= 0) // Locked in profit -> No margin requirement\n                return 0;\n            else\n                return -amount; // Locked in loss\n        \n        int128 requirement = getInitialMargin(notional, amount) + getVariationMargin(notional, amount);\n        if (requirement < 0)    // Requirement cannot be negative \n            requirement = 0;\n\n        if (notional > 0 && requirement > -amount)  // Long position with negative amount -> Downside cannot exceed amount\n            return -amount;\n\n        return requirement;  // All other cases\n    }\n\n    function getCollateralRequirement(int32 positionNotional, int128 positionValue, int32 bidNotional, int64 bidPrice, int32 askNotional, int64 askPrice) public view returns (int128) {\n        int128 posCol = getMarginRequirement(positionNotional, positionValue);\n        int128 bidCol = getMarginRequirement(positionNotional + bidNotional, positionValue - int128(bidNotional) * bidPrice);\n        int128 askCol = getMarginRequirement(positionNotional - askNotional, positionValue + int128(askNotional) * askPrice);\n        int128 dbid = bidCol - posCol;\n        int128 dask = askCol - posCol;\n        int128 result = posCol;\n        if (dbid > 0)\n            result += dbid;\n        if (dask > 0)\n            result += dask;\n        return result;\n    }\n\n    /************************************************\n    * External API - Restricted to Accounts\n    *************************************************/\n\n    function goLong(int32 notional, int64 bidPrice) external canTrade {\n        require(notional >= 0 && price >= 0, \"Notional and Price must be non-negative\");\n        require(preClearBid(msg.sender, notional, bidPrice), \"Insufficient collateral\");\n        updateBid(msg.sender, notional, bidPrice);\n        emit OrderPosted(msg.sender, notional, bidPrice);\n        clearLong(msg.sender);\n    }\n\n    function goShort(int32 notional, int64 askPrice) external canTrade {\n        require(notional >= 0 && price >= 0, \"Notional and Price must be non-negative\");\n        require(preClearAsk(msg.sender, notional, askPrice), \"Insufficient collateral\");\n        updateAsk(msg.sender, notional, askPrice);\n        emit OrderPosted(msg.sender, -notional, askPrice);\n        clearShort(msg.sender);\n    }\n\n    function transferNotional(address recipient, int32 notional) external canTrade {\n        require(verified[recipient] && fees[recipient] >= fee, \"Recipient not registered\");\n        require(notional > 0, \"Notional must be greater zero\");\n        require(preClear(msg.sender, getCollateralRequirement(positions[msg.sender].notional - notional, positions[msg.sender].amount, bids[msg.sender].notional, bids[msg.sender].price, asks[msg.sender].notional, asks[msg.sender].price)), \"Insufficient collateral\");\n        positions[msg.sender].notional -= notional;\n        positions[recipient].notional += notional;\n    }\n\n    /*****************************************************************\n    * External API - Restricted to Owner\n    *****************************************************************/\n\n    function setVerified(address account, bool isValid) public onlyOwner { verified[account] = isValid; }\n    \n    function addVerifiedAccount(address account) external onlyOwner {\n        for (uint i = 0; i < accounts.length; i++) {\n            if (accounts[i] == account) {\n                return;\n            }\n        }\n        accounts.push(account);\n        setVerified(account, true);\n    } \n    \n    function transferOwnership(address payable newOwner) external onlyOwner {\n        require(newOwner != address(0), \"Invalid address\");\n        owner = newOwner;\n    }\n\n    function destroy() external onlyOwner {\n        require(isExpired() && isSettled(), \"Contract in use\");\n        selfdestruct(owner);\n    }\n\n\n    /************************************************\n    * Fallback - Payable function reveive fee\n    *************************************************/\n\n    // sender will be added to accounts if not yet present by event handler\n    function payFee() payable external {\n        fees[msg.sender] += msg.value;\n        emit FeePaid(msg.sender, msg.value);\n    }\n}\n\n// File: contracts/Forward.sol\n\n/**\n*  Copyright 2019 Steffen Lehmann\n* Deployment not permitted except to local test networks\n**/\n\npragma solidity ^0.5.0;\n\n\n/**\n * @title Forward\n * @dev \n */\ncontract Forward is Derivative {\n       \n    /**\n    * @dev Constructor\n    */\n    constructor(\n        uint32 contractExpirationTime, \n        uint64 contractFee, \n        uint8 contractInitialMarginRate, \n        uint8 contractVariationMarginRate) public {\n\n        owner = msg.sender;\n        expirationTime = contractExpirationTime;\n        fee = contractFee;\n        initialMarginRate = contractInitialMarginRate;\n        variationMarginRate = contractVariationMarginRate;\n    }\n\n    modifier verifiedPrice(int64 priceToVerify, uint8 v, bytes32 r, bytes32 s) {\n        require(isValidSignature(getMessageHash(priceToVerify), v, r, s), \"Verification failed\");\n        _;\n    }\n\n    function getMessageHash(int64 priceToVerify) private pure returns (bytes32) {\n        return keccak256(abi.encodePacked(\"\\x19Ethereum Signed Message:\\n32\", keccak256(abi.encode(priceToVerify))));\n    }\n\n    function isValidSignature(bytes32 hash, uint8 v, bytes32 r, bytes32 s) private view returns(bool) {\n        return ecrecover(hash, v, r, s) == owner;\n    }\n\n    function clearTrade(address longAccount, address shortAccount, int32 notional, int64 xp) private {\n        price = xp;\n        emit TradeCleared(longAccount, shortAccount, notional, xp);\n    }\n\n    function isInDefault(address account) external view returns (bool) {\n        AccountProxy proxy = AccountProxy(account);\n        return proxy.isInsufficientBalance();\n    }\n\n    /**\n    * Close account that is in default\n    * rules enforced by account contract\n    */\n    function closeOut(address account) external {\n        AccountProxy proxy = AccountProxy(account);\n        proxy.closeOut();\n    }\n\n    /**\n    * Close position at current price\n    * after contract has expired\n    * and release excess collateral\n    */  \n    function closePosition(address account, int64 settlementPrice, uint8 v, bytes32 r, bytes32 s) \n        external verifiedPrice(settlementPrice, v, r, s) {\n        if (!isExpired()) { \n            valuationTime = expirationTime; // Expire contract\n        }\n        positions[account].amount += int128(positions[account].notional) * settlementPrice;\n        positions[account].notional = 0;\n    }\n\n    /**\n    * out-of-the-money party pays in-the-money party\n    * release excess collateral\n    * rules enforced by account contract\n    */\n    function settle(address otmParty, address itmParty, int128 amountToSettle) external {\n        int128 amount = positions[itmParty].amount;\n        require(positions[itmParty].notional == 0 && amount > 0 && amountToSettle <= amount, \"ITM Party not eligible to receive\");\n        AccountProxy otmProxy = AccountProxy(otmParty);\n        otmProxy.settle(itmParty, amountToSettle);\n        positions[otmParty].amount += amountToSettle;\n        positions[itmParty].amount -= amountToSettle;\n    }\n \n}\n",
  "sourcePath": "/Users/Steffen/Projects/ProDerivatives/public/EthereumContracts/contracts/Forward.sol",
  "compiler": {
    "name": "solc",
    "version": "0.5.0+commit.1d4f565a.Emscripten.clang"
  },
  "schemaVersion": "3.0.1",
  "updatedAt": "2019-04-15T19:02:09.579Z",
  "devdoc": {
    "methods": {
      "constructor": {
        "details": "Constructor"
      }
    },
    "title": "Forward"
  },
  "userdoc": {
    "methods": {
      "closeOut(address)": {
        "notice": "Close account that is in default rules enforced by account contract"
      },
      "closePosition(address,int64,uint8,bytes32,bytes32)": {
        "notice": "Close position at current price after contract has expired and release excess collateral"
      },
      "getAccounts()": {
        "notice": "*********************************** External Methods - Non Restricted*************************************"
      },
      "goLong(int32,int64)": {
        "notice": "********************************************** External API - Restricted to Accounts************************************************"
      },
      "isExpired()": {
        "notice": "*************************************************** Public Methods - Called extarnally and from contract****************************************************"
      },
      "payFee()": {
        "notice": "********************************************** Fallback - Payable function reveive fee************************************************"
      },
      "setVerified(address,bool)": {
        "notice": "*************************************************************** External API - Restricted to Owner****************************************************************"
      },
      "settle(address,address,int128)": {
        "notice": "out-of-the-money party pays in-the-money party release excess collateral rules enforced by account contract"
      }
    }
  }
}